{
  "address": "0xb28FA23348566496577151153C0Ce80e8328dda2",
  "abi": [
    {
      "inputs": [
        {
          "internalType": "address payable",
          "name": "initialOwner",
          "type": "address"
        },
        {
          "internalType": "contract ERC20",
          "name": "baseTokenToSet",
          "type": "address"
        }
      ],
      "stateMutability": "nonpayable",
      "type": "constructor"
    },
    {
      "inputs": [
        {
          "internalType": "address",
          "name": "owner",
          "type": "address"
        }
      ],
      "name": "OwnableInvalidOwner",
      "type": "error"
    },
    {
      "inputs": [
        {
          "internalType": "address",
          "name": "account",
          "type": "address"
        }
      ],
      "name": "OwnableUnauthorizedAccount",
      "type": "error"
    },
    {
      "anonymous": false,
      "inputs": [
        {
          "indexed": false,
          "internalType": "address",
          "name": "lister",
          "type": "address"
        },
        {
          "indexed": false,
          "internalType": "bool",
          "name": "wasApproved",
          "type": "bool"
        },
        {
          "indexed": false,
          "internalType": "bool",
          "name": "isApproved",
          "type": "bool"
        }
      ],
      "name": "ApprovedListerChanged",
      "type": "event"
    },
    {
      "anonymous": false,
      "inputs": [
        {
          "indexed": true,
          "internalType": "contract IERC20",
          "name": "oldBaseToken",
          "type": "address"
        },
        {
          "indexed": true,
          "internalType": "contract IERC20",
          "name": "newBaseToken",
          "type": "address"
        }
      ],
      "name": "BaseTokenChanged",
      "type": "event"
    },
    {
      "anonymous": false,
      "inputs": [
        {
          "indexed": false,
          "internalType": "address",
          "name": "paidTo",
          "type": "address"
        },
        {
          "indexed": false,
          "internalType": "uint256",
          "name": "amountPaidOut",
          "type": "uint256"
        }
      ],
      "name": "BaseTokensPayout",
      "type": "event"
    },
    {
      "anonymous": false,
      "inputs": [
        {
          "indexed": false,
          "internalType": "uint256",
          "name": "oldValue",
          "type": "uint256"
        },
        {
          "indexed": false,
          "internalType": "uint256",
          "name": "newValue",
          "type": "uint256"
        }
      ],
      "name": "DefaultMaxQuestionBidChanged",
      "type": "event"
    },
    {
      "anonymous": false,
      "inputs": [
        {
          "indexed": false,
          "internalType": "uint24",
          "name": "oldValue",
          "type": "uint24"
        },
        {
          "indexed": false,
          "internalType": "uint24",
          "name": "newValue",
          "type": "uint24"
        }
      ],
      "name": "DefaultSponsorFractionOfOptionPoolChanged",
      "type": "event"
    },
    {
      "anonymous": false,
      "inputs": [
        {
          "indexed": false,
          "internalType": "address",
          "name": "recipient",
          "type": "address"
        },
        {
          "indexed": false,
          "internalType": "uint256",
          "name": "amountPaidOut",
          "type": "uint256"
        },
        {
          "indexed": false,
          "internalType": "contract IERC20",
          "name": "tokenContract",
          "type": "address"
        }
      ],
      "name": "ERC20Withdrawal",
      "type": "event"
    },
    {
      "anonymous": false,
      "inputs": [
        {
          "indexed": false,
          "internalType": "address",
          "name": "recipient",
          "type": "address"
        },
        {
          "indexed": false,
          "internalType": "uint256",
          "name": "amountPaidOut",
          "type": "uint256"
        }
      ],
      "name": "EthWithdrawal",
      "type": "event"
    },
    {
      "anonymous": false,
      "inputs": [
        {
          "indexed": false,
          "internalType": "uint256",
          "name": "oldValue",
          "type": "uint256"
        },
        {
          "indexed": false,
          "internalType": "uint256",
          "name": "newValue",
          "type": "uint256"
        }
      ],
      "name": "GameSponsorMinChanged",
      "type": "event"
    },
    {
      "anonymous": false,
      "inputs": [
        {
          "indexed": false,
          "internalType": "bool",
          "name": "oldValue",
          "type": "bool"
        },
        {
          "indexed": false,
          "internalType": "bool",
          "name": "newValue",
          "type": "bool"
        }
      ],
      "name": "OpenToAnyListerChanged",
      "type": "event"
    },
    {
      "anonymous": false,
      "inputs": [
        {
          "indexed": true,
          "internalType": "address",
          "name": "previousOwner",
          "type": "address"
        },
        {
          "indexed": true,
          "internalType": "address",
          "name": "newOwner",
          "type": "address"
        }
      ],
      "name": "OwnershipTransferred",
      "type": "event"
    },
    {
      "anonymous": false,
      "inputs": [
        {
          "indexed": false,
          "internalType": "address",
          "name": "donor",
          "type": "address"
        },
        {
          "indexed": false,
          "internalType": "uint256",
          "name": "amount",
          "type": "uint256"
        },
        {
          "indexed": false,
          "internalType": "uint256",
          "name": "newPublicGoodsPoolUnpaidBalance",
          "type": "uint256"
        }
      ],
      "name": "PublicGoodsPoolDonationReceived",
      "type": "event"
    },
    {
      "anonymous": false,
      "inputs": [
        {
          "indexed": false,
          "internalType": "address",
          "name": "paidTo",
          "type": "address"
        },
        {
          "indexed": false,
          "internalType": "uint256",
          "name": "amountPaidOut",
          "type": "uint256"
        },
        {
          "indexed": false,
          "internalType": "uint256",
          "name": "newTotalPaidOut",
          "type": "uint256"
        }
      ],
      "name": "PublicGoodsPoolPayout",
      "type": "event"
    },
    {
      "anonymous": false,
      "inputs": [
        {
          "indexed": false,
          "internalType": "uint256",
          "name": "oldValue",
          "type": "uint256"
        },
        {
          "indexed": false,
          "internalType": "uint256",
          "name": "newValue",
          "type": "uint256"
        }
      ],
      "name": "QuestionSponsorMinChanged",
      "type": "event"
    },
    {
      "anonymous": false,
      "inputs": [
        {
          "indexed": false,
          "internalType": "uint24",
          "name": "oldValue",
          "type": "uint24"
        },
        {
          "indexed": false,
          "internalType": "uint24",
          "name": "newValue",
          "type": "uint24"
        }
      ],
      "name": "SponsorFractionOfQuestionPoolChanged",
      "type": "event"
    },
    {
      "anonymous": false,
      "inputs": [
        {
          "indexed": false,
          "internalType": "address",
          "name": "donor",
          "type": "address"
        },
        {
          "indexed": false,
          "internalType": "uint256",
          "name": "amount",
          "type": "uint256"
        }
      ],
      "name": "TipReceived",
      "type": "event"
    },
    {
      "inputs": [
        {
          "internalType": "address",
          "name": "",
          "type": "address"
        }
      ],
      "name": "approvedListers",
      "outputs": [
        {
          "internalType": "bool",
          "name": "",
          "type": "bool"
        }
      ],
      "stateMutability": "view",
      "type": "function"
    },
    {
      "inputs": [],
      "name": "baseToken",
      "outputs": [
        {
          "internalType": "contract IERC20",
          "name": "",
          "type": "address"
        }
      ],
      "stateMutability": "view",
      "type": "function"
    },
    {
      "inputs": [
        {
          "internalType": "address",
          "name": "lister",
          "type": "address"
        },
        {
          "internalType": "bool",
          "name": "shouldBeApproved",
          "type": "bool"
        }
      ],
      "name": "changeApprovedLister",
      "outputs": [],
      "stateMutability": "nonpayable",
      "type": "function"
    },
    {
      "inputs": [
        {
          "internalType": "contract ERC20",
          "name": "newBaseToken",
          "type": "address"
        }
      ],
      "name": "changeBaseToken",
      "outputs": [],
      "stateMutability": "nonpayable",
      "type": "function"
    },
    {
      "inputs": [
        {
          "internalType": "uint256",
          "name": "newValue",
          "type": "uint256"
        }
      ],
      "name": "changeDefaultMaxQuestionBid",
      "outputs": [],
      "stateMutability": "nonpayable",
      "type": "function"
    },
    {
      "inputs": [
        {
          "internalType": "uint24",
          "name": "newValue",
          "type": "uint24"
        }
      ],
      "name": "changeDefaultSponsorFractionOfOptionPool",
      "outputs": [],
      "stateMutability": "nonpayable",
      "type": "function"
    },
    {
      "inputs": [
        {
          "internalType": "uint256",
          "name": "newValue",
          "type": "uint256"
        }
      ],
      "name": "changeGameSponsorMin",
      "outputs": [],
      "stateMutability": "nonpayable",
      "type": "function"
    },
    {
      "inputs": [
        {
          "internalType": "bool",
          "name": "newValue",
          "type": "bool"
        }
      ],
      "name": "changeOpenToAnyLister",
      "outputs": [],
      "stateMutability": "nonpayable",
      "type": "function"
    },
    {
      "inputs": [
        {
          "internalType": "uint256",
          "name": "newValue",
          "type": "uint256"
        }
      ],
      "name": "changeQuestionSponsorMin",
      "outputs": [],
      "stateMutability": "nonpayable",
      "type": "function"
    },
    {
      "inputs": [
        {
          "internalType": "uint24",
          "name": "newValue",
          "type": "uint24"
        }
      ],
      "name": "changeSponsorFractionOfQuestionPool",
      "outputs": [],
      "stateMutability": "nonpayable",
      "type": "function"
    },
    {
      "inputs": [],
      "name": "defaultMaxQuestionBid",
      "outputs": [
        {
          "internalType": "uint256",
          "name": "",
          "type": "uint256"
        }
      ],
      "stateMutability": "view",
      "type": "function"
    },
    {
      "inputs": [],
      "name": "defaultSponsorFractionOfOptionPool",
      "outputs": [
        {
          "internalType": "uint24",
          "name": "",
          "type": "uint24"
        }
      ],
      "stateMutability": "view",
      "type": "function"
    },
    {
      "inputs": [
        {
          "internalType": "uint256",
          "name": "amount",
          "type": "uint256"
        }
      ],
      "name": "donateToPublicGoods",
      "outputs": [],
      "stateMutability": "nonpayable",
      "type": "function"
    },
    {
      "inputs": [],
      "name": "gameSponsorMin",
      "outputs": [
        {
          "internalType": "uint256",
          "name": "",
          "type": "uint256"
        }
      ],
      "stateMutability": "view",
      "type": "function"
    },
    {
      "inputs": [
        {
          "internalType": "address",
          "name": "potentialLister",
          "type": "address"
        }
      ],
      "name": "isAllowedToList",
      "outputs": [
        {
          "internalType": "bool",
          "name": "",
          "type": "bool"
        }
      ],
      "stateMutability": "view",
      "type": "function"
    },
    {
      "inputs": [],
      "name": "openToAnyLister",
      "outputs": [
        {
          "internalType": "bool",
          "name": "",
          "type": "bool"
        }
      ],
      "stateMutability": "view",
      "type": "function"
    },
    {
      "inputs": [],
      "name": "owner",
      "outputs": [
        {
          "internalType": "address",
          "name": "",
          "type": "address"
        }
      ],
      "stateMutability": "view",
      "type": "function"
    },
    {
      "inputs": [
        {
          "internalType": "address",
          "name": "payTo",
          "type": "address"
        },
        {
          "internalType": "uint256",
          "name": "payAmount",
          "type": "uint256"
        }
      ],
      "name": "payoutBaseTokens",
      "outputs": [],
      "stateMutability": "nonpayable",
      "type": "function"
    },
    {
      "inputs": [
        {
          "internalType": "address payable",
          "name": "recipient",
          "type": "address"
        }
      ],
      "name": "payoutEth",
      "outputs": [],
      "stateMutability": "nonpayable",
      "type": "function"
    },
    {
      "inputs": [
        {
          "internalType": "address",
          "name": "payTo",
          "type": "address"
        },
        {
          "internalType": "uint256",
          "name": "payAmount",
          "type": "uint256"
        }
      ],
      "name": "payoutPublicGoods",
      "outputs": [],
      "stateMutability": "nonpayable",
      "type": "function"
    },
    {
      "inputs": [],
      "name": "publicGoodsPoolPaidOut",
      "outputs": [
        {
          "internalType": "uint256",
          "name": "",
          "type": "uint256"
        }
      ],
      "stateMutability": "view",
      "type": "function"
    },
    {
      "inputs": [],
      "name": "publicGoodsPoolUnpaidBalance",
      "outputs": [
        {
          "internalType": "uint256",
          "name": "",
          "type": "uint256"
        }
      ],
      "stateMutability": "view",
      "type": "function"
    },
    {
      "inputs": [],
      "name": "questionSponsorMin",
      "outputs": [
        {
          "internalType": "uint256",
          "name": "",
          "type": "uint256"
        }
      ],
      "stateMutability": "view",
      "type": "function"
    },
    {
      "inputs": [],
      "name": "renounceOwnership",
      "outputs": [],
      "stateMutability": "nonpayable",
      "type": "function"
    },
    {
      "inputs": [],
      "name": "sponsorFractionOfQuestionPool",
      "outputs": [
        {
          "internalType": "uint24",
          "name": "",
          "type": "uint24"
        }
      ],
      "stateMutability": "view",
      "type": "function"
    },
    {
      "inputs": [
        {
          "internalType": "uint256",
          "name": "amount",
          "type": "uint256"
        }
      ],
      "name": "tip",
      "outputs": [],
      "stateMutability": "nonpayable",
      "type": "function"
    },
    {
      "inputs": [
        {
          "internalType": "address",
          "name": "newOwner",
          "type": "address"
        }
      ],
      "name": "transferOwnership",
      "outputs": [],
      "stateMutability": "nonpayable",
      "type": "function"
    },
    {
      "inputs": [
        {
          "internalType": "address",
          "name": "",
          "type": "address"
        },
        {
          "internalType": "uint256",
          "name": "",
          "type": "uint256"
        },
        {
          "internalType": "contract IERC20",
          "name": "",
          "type": "address"
        }
      ],
      "name": "withdrawERC20Tokens",
      "outputs": [],
      "stateMutability": "pure",
      "type": "function"
    },
    {
      "stateMutability": "payable",
      "type": "receive"
    }
  ],
  "transactionHash": "0x8d8fdd27dc32969e6a7879a2c02699400823616c7b4892fc62433a19796b5768",
  "args": [
    "0x10C86853225241e9F4D13D97C81E5050C5C2e39b",
    "0x78C603846fCFb0E90715Fd5d6C6B42E80E2E81B6"
  ],
  "numDeployments": 1,
  "solcInputHash": "5d73b6fc5d0633ca1563752232c0d8dc",
  "bytecode": "0x60806040526005805465ffffffffffff191665030d401e8480179055600060068190556007556008805460ff191690553480156200003c57600080fd5b506040516200196d3803806200196d8339810160408190526200005f916200046e565b81806001600160a01b0381166200009157604051631e4fbdf760e01b8152600060048201526024015b60405180910390fd5b6200009c816200026b565b50620000aa905081620002bb565b6001546040805163313ce56760e01b815290516200013d926001600160a01b03169163313ce5679160048083019260209291908290030181865afa158015620000f7573d6000803e3d6000fd5b505050506040513d601f19601f820116820180604052508101906200011d9190620004ad565b6200012a90600a620005ee565b62000137906064620005ff565b62000317565b6001546040805163313ce56760e01b81529051620001d0926001600160a01b03169163313ce5679160048083019260209291908290030181865afa1580156200018a573d6000803e3d6000fd5b505050506040513d601f19601f82011682018060405250810190620001b09190620004ad565b620001bd90600a620005ee565b620001ca906005620005ff565b62000358565b6001546040805163313ce56760e01b8152905162000263926001600160a01b03169163313ce5679160048083019260209291908290030181865afa1580156200021d573d6000803e3d6000fd5b505050506040513d601f19601f82011682018060405250810190620002439190620004ad565b6200025090600a620005ee565b6200025d906064620005ff565b62000399565b505062000619565b600080546001600160a01b038381166001600160a01b0319831681178455604051919092169283917f8be0079c531659141344cd1fd0a4f28419497f9722a3daafe3b4186f6b6457e09190a35050565b6001546040516001600160a01b038084169216907faa0d36f105cf06fec442992402f89d1900d47910b2fa17a39a2f12f3e091c35c90600090a3600180546001600160a01b0319166001600160a01b0392909216919091179055565b60025460408051918252602082018390527f5cf599e30e4a0cc26916dc9e25fc43b9ed129f3135bc6e59ed48c11747c12c9b910160405180910390a1600255565b60035460408051918252602082018390527fda2b14c5e974eb2a073f954804684633b7b41fa03e6f5b39dc1a299dfb890984910160405180910390a1600355565b600160ff1b8110620004145760405162461bcd60e51b815260206004820152603560248201527f44656661756c74206d6178207175657374696f6e20626964206973206f75742060448201527f6f662074686520616c6c6f7765642072616e67652e0000000000000000000000606482015260840162000088565b60045460408051918252602082018390527fb06e37bf0d74ab4a3a50b003cba16208804fa44149a4ce8f329c357ba63ad88b910160405180910390a1600455565b6001600160a01b03811681146200046b57600080fd5b50565b600080604083850312156200048257600080fd5b82516200048f8162000455565b6020840151909250620004a28162000455565b809150509250929050565b600060208284031215620004c057600080fd5b815160ff81168114620004d257600080fd5b9392505050565b634e487b7160e01b600052601160045260246000fd5b600181815b8085111562000530578160001904821115620005145762000514620004d9565b808516156200052257918102915b93841c9390800290620004f4565b509250929050565b6000826200054957506001620005e8565b816200055857506000620005e8565b81600181146200057157600281146200057c576200059c565b6001915050620005e8565b60ff841115620005905762000590620004d9565b50506001821b620005e8565b5060208310610133831016604e8410600b8410161715620005c1575081810a620005e8565b620005cd8383620004ef565b8060001904821115620005e457620005e4620004d9565b0290505b92915050565b6000620004d260ff84168362000538565b8082028115828204841417620005e857620005e8620004d9565b61134480620006296000396000f3fe6080604052600436106101bb5760003560e01c80639f225293116100ec578063c6ed4e6c1161008a578063e8b69bc311610064578063e8b69bc3146104e6578063f0b685ed14610506578063f2fde38b14610526578063fa06d0501461054657600080fd5b8063c6ed4e6c14610486578063ce6d0c33146104a6578063dc554cde146104c657600080fd5b8063a4c539d7116100c6578063a4c539d714610402578063aa6dcf5814610422578063c472c9fc14610452578063c55dae631461046857600080fd5b80639f225293146103ac578063a0b558c4146103cc578063a0e20976146103e657600080fd5b806351505733116101595780638da5cb5b116101335780638da5cb5b1461031e578063962bd2f51461035057806398564437146103805780639889faca1461039657600080fd5b806351505733146102b25780635a05720f146102d2578063715018a61461030957600080fd5b8063153151531161019557806315315153146102295780631f5195b714610252578063311acf121461027257806343bce3c71461029257600080fd5b806306526485146101c757806308dfc89c146101e95780630fa68f581461020957600080fd5b366101c257005b600080fd5b3480156101d357600080fd5b506101e76101e2366004611168565b61055c565b005b3480156101f557600080fd5b506101e76102043660046111a2565b610572565b34801561021557600080fd5b506101e76102243660046111db565b610584565b34801561023557600080fd5b5061023f60075481565b6040519081526020015b60405180910390f35b34801561025e57600080fd5b506101e761026d366004611207565b610598565b34801561027e57600080fd5b506101e761028d366004611249565b61061f565b34801561029e57600080fd5b506101e76102ad366004611266565b610630565b3480156102be57600080fd5b506101e76102cd366004611168565b610641565b3480156102de57600080fd5b506005546102f5906301000000900462ffffff1681565b60405162ffffff9091168152602001610249565b34801561031557600080fd5b506101e7610653565b34801561032a57600080fd5b506000546001600160a01b03165b6040516001600160a01b039091168152602001610249565b34801561035c57600080fd5b5061037061036b36600461127f565b610667565b6040519015158152602001610249565b34801561038c57600080fd5b5061023f60025481565b3480156103a257600080fd5b5061023f60065481565b3480156103b857600080fd5b506101e76103c736600461127f565b610699565b3480156103d857600080fd5b506008546103709060ff1681565b3480156103f257600080fd5b506005546102f59062ffffff1681565b34801561040e57600080fd5b506101e761041d36600461127f565b6106aa565b34801561042e57600080fd5b5061037061043d36600461127f565b60096020526000908152604090205460ff1681565b34801561045e57600080fd5b5061023f60045481565b34801561047457600080fd5b506001546001600160a01b0316610338565b34801561049257600080fd5b506101e76104a1366004611266565b61078d565b3480156104b257600080fd5b506101e76104c1366004611266565b61079e565b3480156104d257600080fd5b506101e76104e1366004611266565b6107af565b3480156104f257600080fd5b506101e7610501366004611266565b6108d0565b34801561051257600080fd5b506101e76105213660046111db565b6109c7565b34801561053257600080fd5b506101e761054136600461127f565b6109d8565b34801561055257600080fd5b5061023f60035481565b610564610a13565b61056e8282610a40565b5050565b61057a610a13565b61056e8282610c1b565b61058c610a13565b61059581610ca3565b50565b60405162461bcd60e51b815260206004820152604b60248201527f41726269747261727920746f6b656e207769746864726177616c20697320646960448201527f7361626c656420746f2070726f7465637420746865207075626c696320676f6f60648201526a3239903130b630b731b29760a91b608482015260a4015b60405180910390fd5b610627610a13565b61059581610d11565b610638610a13565b61059581610d67565b610649610a13565b61056e8282610da8565b61065b610a13565b6106656000610f57565b565b60085460009060ff168061069357506001600160a01b03821660009081526009602052604090205460ff165b92915050565b6106a1610a13565b61059581610fa7565b6106b2610a13565b604080516001600160a01b03831681524760208201527fc32d3c7eb0f275cbb5b72b3d3c688269430f30e5b9bb36980396edd9101c615c910160405180910390a16000816001600160a01b03164760405160006040518083038185875af1925050503d8060008114610740576040519150601f19603f3d011682016040523d82523d6000602084013e610745565b606091505b505090508061056e5760405162461bcd60e51b81526020600482015260146024820152732330b4b632b2103a379039b2b7321022ba3432b960611b6044820152606401610616565b610795610a13565b61059581611003565b6107a6610a13565b610595816110b5565b80600660008282546107c191906112b2565b9091555050600654604080513381526020810184905280820192909252517fa9a0452f54554aa149ef4bc38425f6171ffa021a9b7d401bbf4d7803c38481769181900360600190a16001546040516323b872dd60e01b8152336004820152306024820152604481018390526001600160a01b03909116906323b872dd906064016020604051808303816000875af1158015610860573d6000803e3d6000fd5b505050506040513d601f19601f8201168201806040525081019061088491906112c5565b6105955760405162461bcd60e51b815260206004820152601960248201527f446f6e6174696f6e207472616e73666572206661696c65642e000000000000006044820152606401610616565b60408051338152602081018390527fd870bae925cfee4bcba43c4af9dd73d2355dfaf3bb76145be3857b4ec634ab9f910160405180910390a16001546040516323b872dd60e01b8152336004820152306024820152604481018390526001600160a01b03909116906323b872dd906064016020604051808303816000875af1158015610960573d6000803e3d6000fd5b505050506040513d601f19601f8201168201806040525081019061098491906112c5565b6105955760405162461bcd60e51b81526020600482015260146024820152732a34b8103a3930b739b332b9103330b4b632b21760611b6044820152606401610616565b6109cf610a13565b610595816110f6565b6109e0610a13565b6001600160a01b038116610a0a57604051631e4fbdf760e01b815260006004820152602401610616565b61059581610f57565b6000546001600160a01b031633146106655760405163118cdaa760e01b8152336004820152602401610616565b6006546001546040516370a0823160e01b81523060048201526001600160a01b03909116906370a0823190602401602060405180830381865afa158015610a8b573d6000803e3d6000fd5b505050506040513d601f19601f82011682018060405250810190610aaf91906112e2565b610ab991906112fb565b811115610b255760405162461bcd60e51b815260206004820152603460248201527f496e73756666696369656e742066756e647320746f206d616b652074686520726044820152736571756573746564207769746864726177616c2160601b6064820152608401610616565b604080516001600160a01b0384168152602081018390527fa498cda5d01d7885c9184c6832126d245372af7b47830b8521f707541a2abe5c910160405180910390a160015460405163a9059cbb60e01b81526001600160a01b038481166004830152602482018490529091169063a9059cbb906044016020604051808303816000875af1158015610bba573d6000803e3d6000fd5b505050506040513d601f19601f82011682018060405250810190610bde91906112c5565b61056e5760405162461bcd60e51b815260206004820152600e60248201526d2830bcb7baba103330b4b632b21760911b6044820152606401610616565b6001600160a01b03821660008181526009602090815260409182902054825193845260ff1615159083015282151582820152517f3c173a7fb6af6dc98da1894744c24f637d8ce270bdb46a02f3090d24fe50de1c9181900360600190a16001600160a01b03919091166000908152600960205260409020805460ff1916911515919091179055565b6005546040805162ffffff63010000009093048316815291831660208301527f45448b84d425cbc7f1df0997e50efb06b9368c5a79242b04edd86d2b67766b73910160405180910390a16005805462ffffff90921663010000000265ffffff00000019909216919091179055565b6008546040805160ff9092161515825282151560208301527f442ca9429e12ba9d1ce4a52ac2fe2fd7f8ceb96439f76e5100d6c85c681043dd910160405180910390a16008805460ff1916911515919091179055565b60035460408051918252602082018390527fda2b14c5e974eb2a073f954804684633b7b41fa03e6f5b39dc1a299dfb890984910160405180910390a1600355565b600654811115610e0b5760405162461bcd60e51b815260206004820152602860248201527f496e73756666696369656e742066756e647320696e207075626c696320676f6f604482015267647320706f6f6c2160c01b6064820152608401610616565b7f79538594b37ee59664e3cfb83ee8b436c148b4bbbd8709a2959e01465a72fb17828283600754610e3c91906112b2565b604080516001600160a01b03909416845260208401929092529082015260600160405180910390a18060076000828254610e7691906112b2565b925050819055508060066000828254610e8f91906112fb565b909155505060015460405163a9059cbb60e01b81526001600160a01b038481166004830152602482018490529091169063a9059cbb906044016020604051808303816000875af1158015610ee7573d6000803e3d6000fd5b505050506040513d601f19601f82011682018060405250810190610f0b91906112c5565b61056e5760405162461bcd60e51b815260206004820152601b60248201527f5075626c696320676f6f6473207061796f7574206661696c65642e00000000006044820152606401610616565b600080546001600160a01b038381166001600160a01b0319831681178455604051919092169283917f8be0079c531659141344cd1fd0a4f28419497f9722a3daafe3b4186f6b6457e09190a35050565b6001546040516001600160a01b038084169216907faa0d36f105cf06fec442992402f89d1900d47910b2fa17a39a2f12f3e091c35c90600090a3600180546001600160a01b0319166001600160a01b0392909216919091179055565b600160ff1b81106110745760405162461bcd60e51b815260206004820152603560248201527f44656661756c74206d6178207175657374696f6e20626964206973206f75742060448201527437b3103a34329030b63637bbb2b2103930b733b29760591b6064820152608401610616565b60045460408051918252602082018390527fb06e37bf0d74ab4a3a50b003cba16208804fa44149a4ce8f329c357ba63ad88b910160405180910390a1600455565b60025460408051918252602082018390527f5cf599e30e4a0cc26916dc9e25fc43b9ed129f3135bc6e59ed48c11747c12c9b910160405180910390a1600255565b6005546040805162ffffff928316815291831660208301527f98be775d36107a1416c46e0107db42dff0276eb933895a7debf437f73b78fe47910160405180910390a16005805462ffffff191662ffffff92909216919091179055565b6001600160a01b038116811461059557600080fd5b6000806040838503121561117b57600080fd5b823561118681611153565b946020939093013593505050565b801515811461059557600080fd5b600080604083850312156111b557600080fd5b82356111c081611153565b915060208301356111d081611194565b809150509250929050565b6000602082840312156111ed57600080fd5b813562ffffff8116811461120057600080fd5b9392505050565b60008060006060848603121561121c57600080fd5b833561122781611153565b925060208401359150604084013561123e81611153565b809150509250925092565b60006020828403121561125b57600080fd5b813561120081611194565b60006020828403121561127857600080fd5b5035919050565b60006020828403121561129157600080fd5b813561120081611153565b634e487b7160e01b600052601160045260246000fd5b808201808211156106935761069361129c565b6000602082840312156112d757600080fd5b815161120081611194565b6000602082840312156112f457600080fd5b5051919050565b818103818111156106935761069361129c56fea2646970667358221220f022e5d749611ac9f98ebcc7a747ebeb2fb09dfc1f5e670ce2cbcb85f0c87c9964736f6c63430008140033",
  "devdoc": {
    "errors": {
      "OwnableInvalidOwner(address)": [
        {
          "details": "The owner is not a valid owner account. (eg. `address(0)`)"
        }
      ],
      "OwnableUnauthorizedAccount(address)": [
        {
          "details": "The caller account is not authorized to perform an operation."
        }
      ]
    },
    "kind": "dev",
    "methods": {
      "owner()": {
        "details": "Returns the address of the current owner."
      },
      "renounceOwnership()": {
        "details": "Leaves the contract without owner. It will not be possible to call `onlyOwner` functions. Can only be called by the current owner. NOTE: Renouncing ownership will leave the contract without an owner, thereby disabling any functionality that is only available to the owner."
      },
      "transferOwnership(address)": {
        "details": "Transfers ownership of the contract to a new account (`newOwner`). Can only be called by the current owner."
      }
    },
    "version": 1
  },
  "userdoc": {
    "kind": "user",
    "methods": {
      "payoutEth(address)": {
        "notice": "Function that allows the owner to withdraw all the Ether in the contract The function can only be called by the owner of the contract as defined by the modifier"
      }
    },
    "version": 1
  },
  "storageLayout": {
    "storage": [
      {
        "astId": 8,
        "contract": "contracts/App3Dict.sol:App3Dict",
        "label": "_owner",
        "offset": 0,
        "slot": "0",
        "type": "t_address"
      },
      {
        "astId": 2000,
        "contract": "contracts/App3Dict.sol:App3Dict",
        "label": "_baseToken",
        "offset": 0,
        "slot": "1",
        "type": "t_contract(ERC20)799"
      },
      {
        "astId": 2002,
        "contract": "contracts/App3Dict.sol:App3Dict",
        "label": "gameSponsorMin",
        "offset": 0,
        "slot": "2",
        "type": "t_uint256"
      },
      {
        "astId": 2004,
        "contract": "contracts/App3Dict.sol:App3Dict",
        "label": "questionSponsorMin",
        "offset": 0,
        "slot": "3",
        "type": "t_uint256"
      },
      {
        "astId": 2006,
        "contract": "contracts/App3Dict.sol:App3Dict",
        "label": "defaultMaxQuestionBid",
        "offset": 0,
        "slot": "4",
        "type": "t_uint256"
      },
      {
        "astId": 2011,
        "contract": "contracts/App3Dict.sol:App3Dict",
        "label": "sponsorFractionOfQuestionPool",
        "offset": 0,
        "slot": "5",
        "type": "t_uint24"
      },
      {
        "astId": 2016,
        "contract": "contracts/App3Dict.sol:App3Dict",
        "label": "defaultSponsorFractionOfOptionPool",
        "offset": 3,
        "slot": "5",
        "type": "t_uint24"
      },
      {
        "astId": 2019,
        "contract": "contracts/App3Dict.sol:App3Dict",
        "label": "publicGoodsPoolUnpaidBalance",
        "offset": 0,
        "slot": "6",
        "type": "t_uint256"
      },
      {
        "astId": 2022,
        "contract": "contracts/App3Dict.sol:App3Dict",
        "label": "publicGoodsPoolPaidOut",
        "offset": 0,
        "slot": "7",
        "type": "t_uint256"
      },
      {
        "astId": 2025,
        "contract": "contracts/App3Dict.sol:App3Dict",
        "label": "openToAnyLister",
        "offset": 0,
        "slot": "8",
        "type": "t_bool"
      },
      {
        "astId": 2029,
        "contract": "contracts/App3Dict.sol:App3Dict",
        "label": "approvedListers",
        "offset": 0,
        "slot": "9",
        "type": "t_mapping(t_address,t_bool)"
      }
    ],
    "types": {
      "t_address": {
        "encoding": "inplace",
        "label": "address",
        "numberOfBytes": "20"
      },
      "t_bool": {
        "encoding": "inplace",
        "label": "bool",
        "numberOfBytes": "1"
      },
      "t_contract(ERC20)799": {
        "encoding": "inplace",
        "label": "contract ERC20",
        "numberOfBytes": "20"
      },
      "t_mapping(t_address,t_bool)": {
        "encoding": "mapping",
        "key": "t_address",
        "label": "mapping(address => bool)",
        "numberOfBytes": "32",
        "value": "t_bool"
      },
      "t_uint24": {
        "encoding": "inplace",
        "label": "uint24",
        "numberOfBytes": "3"
      },
      "t_uint256": {
        "encoding": "inplace",
        "label": "uint256",
        "numberOfBytes": "32"
      }
    }
  }
}