{
  "address": "0xAe28242a2981a27C3F4cf9EB3c6b593C1B78A150",
  "abi": [
    {
      "inputs": [
        {
          "internalType": "address payable",
          "name": "initialOwner",
          "type": "address"
        },
        {
          "internalType": "contract IGamesController",
          "name": "initialController",
          "type": "address"
        }
      ],
      "stateMutability": "nonpayable",
      "type": "constructor"
    },
    {
      "inputs": [
        {
          "internalType": "address",
          "name": "owner",
          "type": "address"
        }
      ],
      "name": "OwnableInvalidOwner",
      "type": "error"
    },
    {
      "inputs": [
        {
          "internalType": "address",
          "name": "account",
          "type": "address"
        }
      ],
      "name": "OwnableUnauthorizedAccount",
      "type": "error"
    },
    {
      "inputs": [
        {
          "internalType": "address",
          "name": "attempter",
          "type": "address"
        }
      ],
      "name": "PropertyChangeAttemptByNonLister",
      "type": "error"
    },
    {
      "anonymous": false,
      "inputs": [
        {
          "indexed": true,
          "internalType": "uint256",
          "name": "rowID",
          "type": "uint256"
        },
        {
          "indexed": true,
          "internalType": "address",
          "name": "asker",
          "type": "address"
        },
        {
          "indexed": false,
          "internalType": "int8",
          "name": "oldValue",
          "type": "int8"
        },
        {
          "indexed": false,
          "internalType": "int8",
          "name": "newValue",
          "type": "int8"
        }
      ],
      "name": "AskerApprovalChanged",
      "type": "event"
    },
    {
      "anonymous": false,
      "inputs": [
        {
          "indexed": true,
          "internalType": "uint256",
          "name": "rowID",
          "type": "uint256"
        },
        {
          "indexed": false,
          "internalType": "bool",
          "name": "oldValue",
          "type": "bool"
        },
        {
          "indexed": false,
          "internalType": "bool",
          "name": "newValue",
          "type": "bool"
        }
      ],
      "name": "CheckInRequiredChanged",
      "type": "event"
    },
    {
      "anonymous": false,
      "inputs": [
        {
          "indexed": true,
          "internalType": "uint256",
          "name": "rowID",
          "type": "uint256"
        },
        {
          "indexed": false,
          "internalType": "uint256",
          "name": "oldValue",
          "type": "uint256"
        },
        {
          "indexed": false,
          "internalType": "uint256",
          "name": "newValue",
          "type": "uint256"
        }
      ],
      "name": "CheckInStartChanged",
      "type": "event"
    },
    {
      "anonymous": false,
      "inputs": [
        {
          "indexed": true,
          "internalType": "contract IGamesController",
          "name": "oldValue",
          "type": "address"
        },
        {
          "indexed": true,
          "internalType": "contract IGamesController",
          "name": "newValue",
          "type": "address"
        }
      ],
      "name": "ControllerChanged",
      "type": "event"
    },
    {
      "anonymous": false,
      "inputs": [
        {
          "indexed": true,
          "internalType": "address",
          "name": "lister",
          "type": "address"
        },
        {
          "indexed": true,
          "internalType": "uint256",
          "name": "newId",
          "type": "uint256"
        }
      ],
      "name": "Creation",
      "type": "event"
    },
    {
      "anonymous": false,
      "inputs": [
        {
          "indexed": true,
          "internalType": "uint256",
          "name": "rowID",
          "type": "uint256"
        },
        {
          "indexed": false,
          "internalType": "string",
          "name": "oldValue",
          "type": "string"
        },
        {
          "indexed": false,
          "internalType": "string",
          "name": "newValue",
          "type": "string"
        }
      ],
      "name": "Descr500Changed",
      "type": "event"
    },
    {
      "anonymous": false,
      "inputs": [
        {
          "indexed": false,
          "internalType": "address",
          "name": "recipient",
          "type": "address"
        },
        {
          "indexed": false,
          "internalType": "uint256",
          "name": "amountPaidOut",
          "type": "uint256"
        },
        {
          "indexed": false,
          "internalType": "contract IERC20",
          "name": "tokenContract",
          "type": "address"
        }
      ],
      "name": "ERC20Withdrawal",
      "type": "event"
    },
    {
      "anonymous": false,
      "inputs": [
        {
          "indexed": true,
          "internalType": "uint256",
          "name": "rowID",
          "type": "uint256"
        },
        {
          "indexed": false,
          "internalType": "uint256",
          "name": "oldValue",
          "type": "uint256"
        },
        {
          "indexed": false,
          "internalType": "uint256",
          "name": "newValue",
          "type": "uint256"
        }
      ],
      "name": "EndTimeChanged",
      "type": "event"
    },
    {
      "anonymous": false,
      "inputs": [
        {
          "indexed": false,
          "internalType": "address",
          "name": "recipient",
          "type": "address"
        },
        {
          "indexed": false,
          "internalType": "uint256",
          "name": "amountPaidOut",
          "type": "uint256"
        }
      ],
      "name": "EthWithdrawal",
      "type": "event"
    },
    {
      "anonymous": false,
      "inputs": [
        {
          "indexed": true,
          "internalType": "uint256",
          "name": "rowID",
          "type": "uint256"
        },
        {
          "indexed": false,
          "internalType": "string",
          "name": "oldValue",
          "type": "string"
        },
        {
          "indexed": false,
          "internalType": "string",
          "name": "newValue",
          "type": "string"
        }
      ],
      "name": "EventURIChanged",
      "type": "event"
    },
    {
      "anonymous": false,
      "inputs": [
        {
          "indexed": true,
          "internalType": "uint256",
          "name": "rowID",
          "type": "uint256"
        },
        {
          "indexed": false,
          "internalType": "contract IERC20",
          "name": "oldValue",
          "type": "address"
        },
        {
          "indexed": false,
          "internalType": "contract IERC20",
          "name": "newValue",
          "type": "address"
        }
      ],
      "name": "GameTokenChanged",
      "type": "event"
    },
    {
      "anonymous": false,
      "inputs": [
        {
          "indexed": true,
          "internalType": "uint256",
          "name": "rowID",
          "type": "uint256"
        },
        {
          "indexed": false,
          "internalType": "string",
          "name": "oldValue",
          "type": "string"
        },
        {
          "indexed": false,
          "internalType": "string",
          "name": "newValue",
          "type": "string"
        }
      ],
      "name": "ImageURIChanged",
      "type": "event"
    },
    {
      "anonymous": false,
      "inputs": [
        {
          "indexed": true,
          "internalType": "uint256",
          "name": "rowID",
          "type": "uint256"
        },
        {
          "indexed": false,
          "internalType": "uint256",
          "name": "oldValue",
          "type": "uint256"
        },
        {
          "indexed": false,
          "internalType": "uint256",
          "name": "newValue",
          "type": "uint256"
        }
      ],
      "name": "ListEndChanged",
      "type": "event"
    },
    {
      "anonymous": false,
      "inputs": [
        {
          "indexed": true,
          "internalType": "uint256",
          "name": "rowID",
          "type": "uint256"
        },
        {
          "indexed": false,
          "internalType": "uint256",
          "name": "oldValue",
          "type": "uint256"
        },
        {
          "indexed": false,
          "internalType": "uint256",
          "name": "newValue",
          "type": "uint256"
        }
      ],
      "name": "ListStartChanged",
      "type": "event"
    },
    {
      "anonymous": false,
      "inputs": [
        {
          "indexed": true,
          "internalType": "uint256",
          "name": "rowID",
          "type": "uint256"
        },
        {
          "indexed": true,
          "internalType": "address",
          "name": "oldValue",
          "type": "address"
        },
        {
          "indexed": true,
          "internalType": "address",
          "name": "newValue",
          "type": "address"
        }
      ],
      "name": "ListerChanged",
      "type": "event"
    },
    {
      "anonymous": false,
      "inputs": [
        {
          "indexed": true,
          "internalType": "uint256",
          "name": "rowID",
          "type": "uint256"
        },
        {
          "indexed": false,
          "internalType": "uint256",
          "name": "oldValue",
          "type": "uint256"
        },
        {
          "indexed": false,
          "internalType": "uint256",
          "name": "newValue",
          "type": "uint256"
        }
      ],
      "name": "LocationIDChanged",
      "type": "event"
    },
    {
      "anonymous": false,
      "inputs": [
        {
          "indexed": true,
          "internalType": "uint256",
          "name": "rowID",
          "type": "uint256"
        },
        {
          "indexed": false,
          "internalType": "uint256",
          "name": "oldValue",
          "type": "uint256"
        },
        {
          "indexed": false,
          "internalType": "uint256",
          "name": "newValue",
          "type": "uint256"
        }
      ],
      "name": "MaxQuestionBidChanged",
      "type": "event"
    },
    {
      "anonymous": false,
      "inputs": [
        {
          "indexed": true,
          "internalType": "uint256",
          "name": "rowID",
          "type": "uint256"
        },
        {
          "indexed": false,
          "internalType": "bool",
          "name": "oldValue",
          "type": "bool"
        },
        {
          "indexed": false,
          "internalType": "bool",
          "name": "newValue",
          "type": "bool"
        }
      ],
      "name": "OpenToAnyAskerChanged",
      "type": "event"
    },
    {
      "anonymous": false,
      "inputs": [
        {
          "indexed": true,
          "internalType": "address",
          "name": "previousOwner",
          "type": "address"
        },
        {
          "indexed": true,
          "internalType": "address",
          "name": "newOwner",
          "type": "address"
        }
      ],
      "name": "OwnershipTransferred",
      "type": "event"
    },
    {
      "anonymous": false,
      "inputs": [
        {
          "indexed": true,
          "internalType": "uint256",
          "name": "rowID",
          "type": "uint256"
        },
        {
          "indexed": true,
          "internalType": "address",
          "name": "referee",
          "type": "address"
        }
      ],
      "name": "RefereeAdded",
      "type": "event"
    },
    {
      "anonymous": false,
      "inputs": [
        {
          "indexed": true,
          "internalType": "uint256",
          "name": "rowID",
          "type": "uint256"
        },
        {
          "indexed": true,
          "internalType": "address",
          "name": "referee",
          "type": "address"
        }
      ],
      "name": "RefereeRemoved",
      "type": "event"
    },
    {
      "anonymous": false,
      "inputs": [
        {
          "indexed": true,
          "internalType": "uint256",
          "name": "rowID",
          "type": "uint256"
        },
        {
          "indexed": false,
          "internalType": "uint24",
          "name": "oldValue",
          "type": "uint24"
        },
        {
          "indexed": false,
          "internalType": "uint24",
          "name": "newValue",
          "type": "uint24"
        }
      ],
      "name": "SponsorFractionOfOptionPoolChanged",
      "type": "event"
    },
    {
      "anonymous": false,
      "inputs": [
        {
          "indexed": true,
          "internalType": "uint256",
          "name": "rowID",
          "type": "uint256"
        },
        {
          "indexed": true,
          "internalType": "address",
          "name": "sponsor",
          "type": "address"
        },
        {
          "indexed": false,
          "internalType": "uint256",
          "name": "amountAdded",
          "type": "uint256"
        },
        {
          "indexed": false,
          "internalType": "uint256",
          "name": "totalSponsorshipFromThisSponsor",
          "type": "uint256"
        },
        {
          "indexed": false,
          "internalType": "uint256",
          "name": "totalSponsoredAmount",
          "type": "uint256"
        }
      ],
      "name": "SponsorshipAdded",
      "type": "event"
    },
    {
      "anonymous": false,
      "inputs": [
        {
          "indexed": true,
          "internalType": "uint256",
          "name": "rowID",
          "type": "uint256"
        },
        {
          "indexed": false,
          "internalType": "string",
          "name": "oldValue",
          "type": "string"
        },
        {
          "indexed": false,
          "internalType": "string",
          "name": "newValue",
          "type": "string"
        }
      ],
      "name": "Title140Changed",
      "type": "event"
    },
    {
      "inputs": [
        {
          "internalType": "uint256",
          "name": "rowID",
          "type": "uint256"
        },
        {
          "internalType": "address",
          "name": "referee",
          "type": "address"
        }
      ],
      "name": "addReferee",
      "outputs": [],
      "stateMutability": "nonpayable",
      "type": "function"
    },
    {
      "inputs": [
        {
          "internalType": "uint256",
          "name": "rowID",
          "type": "uint256"
        },
        {
          "internalType": "uint256",
          "name": "amountToAdd",
          "type": "uint256"
        },
        {
          "internalType": "address",
          "name": "sponsor",
          "type": "address"
        }
      ],
      "name": "addSponsorship",
      "outputs": [],
      "stateMutability": "nonpayable",
      "type": "function"
    },
    {
      "inputs": [
        {
          "internalType": "uint256",
          "name": "rowID",
          "type": "uint256"
        },
        {
          "internalType": "address",
          "name": "asker",
          "type": "address"
        },
        {
          "internalType": "int8",
          "name": "newValue",
          "type": "int8"
        }
      ],
      "name": "changeAskerApproval",
      "outputs": [],
      "stateMutability": "nonpayable",
      "type": "function"
    },
    {
      "inputs": [
        {
          "internalType": "uint256",
          "name": "rowID",
          "type": "uint256"
        },
        {
          "internalType": "bool",
          "name": "newValue",
          "type": "bool"
        }
      ],
      "name": "changeCheckInRequired",
      "outputs": [],
      "stateMutability": "nonpayable",
      "type": "function"
    },
    {
      "inputs": [
        {
          "internalType": "uint256",
          "name": "rowID",
          "type": "uint256"
        },
        {
          "internalType": "uint256",
          "name": "newValue",
          "type": "uint256"
        }
      ],
      "name": "changeCheckInStart",
      "outputs": [],
      "stateMutability": "nonpayable",
      "type": "function"
    },
    {
      "inputs": [
        {
          "internalType": "contract IGamesController",
          "name": "newController",
          "type": "address"
        }
      ],
      "name": "changeController",
      "outputs": [],
      "stateMutability": "nonpayable",
      "type": "function"
    },
    {
      "inputs": [
        {
          "internalType": "uint256",
          "name": "rowID",
          "type": "uint256"
        },
        {
          "internalType": "string",
          "name": "newValue",
          "type": "string"
        }
      ],
      "name": "changeDescr500",
      "outputs": [],
      "stateMutability": "nonpayable",
      "type": "function"
    },
    {
      "inputs": [
        {
          "internalType": "uint256",
          "name": "rowID",
          "type": "uint256"
        },
        {
          "internalType": "uint256",
          "name": "newValue",
          "type": "uint256"
        }
      ],
      "name": "changeEndTime",
      "outputs": [],
      "stateMutability": "nonpayable",
      "type": "function"
    },
    {
      "inputs": [
        {
          "internalType": "uint256",
          "name": "rowID",
          "type": "uint256"
        },
        {
          "internalType": "string",
          "name": "newValue",
          "type": "string"
        }
      ],
      "name": "changeEventURI",
      "outputs": [],
      "stateMutability": "nonpayable",
      "type": "function"
    },
    {
      "inputs": [
        {
          "internalType": "uint256",
          "name": "rowID",
          "type": "uint256"
        },
        {
          "internalType": "string",
          "name": "newValue",
          "type": "string"
        }
      ],
      "name": "changeImageURI",
      "outputs": [],
      "stateMutability": "nonpayable",
      "type": "function"
    },
    {
      "inputs": [
        {
          "internalType": "uint256",
          "name": "rowID",
          "type": "uint256"
        },
        {
          "internalType": "uint256",
          "name": "newValue",
          "type": "uint256"
        }
      ],
      "name": "changeListEnd",
      "outputs": [],
      "stateMutability": "nonpayable",
      "type": "function"
    },
    {
      "inputs": [
        {
          "internalType": "uint256",
          "name": "rowID",
          "type": "uint256"
        },
        {
          "internalType": "uint256",
          "name": "newValue",
          "type": "uint256"
        }
      ],
      "name": "changeListStart",
      "outputs": [],
      "stateMutability": "nonpayable",
      "type": "function"
    },
    {
      "inputs": [
        {
          "internalType": "uint256",
          "name": "rowID",
          "type": "uint256"
        },
        {
          "internalType": "address",
          "name": "newValue",
          "type": "address"
        }
      ],
      "name": "changeLister",
      "outputs": [],
      "stateMutability": "nonpayable",
      "type": "function"
    },
    {
      "inputs": [
        {
          "internalType": "uint256",
          "name": "rowID",
          "type": "uint256"
        },
        {
          "internalType": "uint256",
          "name": "newValue",
          "type": "uint256"
        }
      ],
      "name": "changeLocationID",
      "outputs": [],
      "stateMutability": "nonpayable",
      "type": "function"
    },
    {
      "inputs": [
        {
          "internalType": "uint256",
          "name": "rowID",
          "type": "uint256"
        },
        {
          "internalType": "uint256",
          "name": "newValue",
          "type": "uint256"
        }
      ],
      "name": "changeMaxQuestionBid",
      "outputs": [],
      "stateMutability": "nonpayable",
      "type": "function"
    },
    {
      "inputs": [
        {
          "internalType": "uint256",
          "name": "rowID",
          "type": "uint256"
        },
        {
          "internalType": "bool",
          "name": "newValue",
          "type": "bool"
        }
      ],
      "name": "changeOpenToAnyAsker",
      "outputs": [],
      "stateMutability": "nonpayable",
      "type": "function"
    },
    {
      "inputs": [
        {
          "internalType": "uint256",
          "name": "rowID",
          "type": "uint256"
        },
        {
          "internalType": "uint24",
          "name": "newValue",
          "type": "uint24"
        }
      ],
      "name": "changeSponsorFractionOfOptionPool",
      "outputs": [],
      "stateMutability": "nonpayable",
      "type": "function"
    },
    {
      "inputs": [
        {
          "internalType": "uint256",
          "name": "rowID",
          "type": "uint256"
        },
        {
          "internalType": "string",
          "name": "newValue",
          "type": "string"
        }
      ],
      "name": "changeTitle140",
      "outputs": [],
      "stateMutability": "nonpayable",
      "type": "function"
    },
    {
      "inputs": [
        {
          "internalType": "address",
          "name": "lister",
          "type": "address"
        }
      ],
      "name": "create",
      "outputs": [],
      "stateMutability": "nonpayable",
      "type": "function"
    },
    {
      "inputs": [
        {
          "internalType": "uint256",
          "name": "gameID",
          "type": "uint256"
        }
      ],
      "name": "gameToken",
      "outputs": [
        {
          "internalType": "contract IERC20",
          "name": "",
          "type": "address"
        }
      ],
      "stateMutability": "view",
      "type": "function"
    },
    {
      "inputs": [
        {
          "internalType": "uint256",
          "name": "gameID",
          "type": "uint256"
        },
        {
          "internalType": "address",
          "name": "potentialLister",
          "type": "address"
        }
      ],
      "name": "isAllowedToList",
      "outputs": [
        {
          "internalType": "bool",
          "name": "",
          "type": "bool"
        }
      ],
      "stateMutability": "view",
      "type": "function"
    },
    {
      "inputs": [
        {
          "internalType": "uint256",
          "name": "gameID",
          "type": "uint256"
        },
        {
          "internalType": "address",
          "name": "potentialReferee",
          "type": "address"
        }
      ],
      "name": "isRefereeFor",
      "outputs": [
        {
          "internalType": "bool",
          "name": "",
          "type": "bool"
        }
      ],
      "stateMutability": "view",
      "type": "function"
    },
    {
      "inputs": [
        {
          "internalType": "uint256",
          "name": "gameID",
          "type": "uint256"
        }
      ],
      "name": "maxQuestionBid",
      "outputs": [
        {
          "internalType": "uint256",
          "name": "",
          "type": "uint256"
        }
      ],
      "stateMutability": "view",
      "type": "function"
    },
    {
      "inputs": [],
      "name": "owner",
      "outputs": [
        {
          "internalType": "address",
          "name": "",
          "type": "address"
        }
      ],
      "stateMutability": "view",
      "type": "function"
    },
    {
      "inputs": [
        {
          "internalType": "address payable",
          "name": "recipient",
          "type": "address"
        }
      ],
      "name": "payoutEth",
      "outputs": [],
      "stateMutability": "nonpayable",
      "type": "function"
    },
    {
      "inputs": [
        {
          "internalType": "uint256",
          "name": "rowID",
          "type": "uint256"
        },
        {
          "internalType": "address",
          "name": "referee",
          "type": "address"
        }
      ],
      "name": "removeReferee",
      "outputs": [],
      "stateMutability": "nonpayable",
      "type": "function"
    },
    {
      "inputs": [],
      "name": "renounceOwnership",
      "outputs": [],
      "stateMutability": "nonpayable",
      "type": "function"
    },
    {
      "inputs": [
        {
          "internalType": "uint256",
          "name": "gameID",
          "type": "uint256"
        }
      ],
      "name": "sponsorFractionOfOptionPool",
      "outputs": [
        {
          "internalType": "uint24",
          "name": "",
          "type": "uint24"
        }
      ],
      "stateMutability": "view",
      "type": "function"
    },
    {
      "inputs": [
        {
          "internalType": "address",
          "name": "newOwner",
          "type": "address"
        }
      ],
      "name": "transferOwnership",
      "outputs": [],
      "stateMutability": "nonpayable",
      "type": "function"
    },
    {
      "inputs": [
        {
          "internalType": "address",
          "name": "recipient",
          "type": "address"
        },
        {
          "internalType": "uint256",
          "name": "payAmount",
          "type": "uint256"
        },
        {
          "internalType": "contract IERC20",
          "name": "tokenContract",
          "type": "address"
        }
      ],
      "name": "withdrawERC20Tokens",
      "outputs": [],
      "stateMutability": "nonpayable",
      "type": "function"
    },
    {
      "stateMutability": "payable",
      "type": "receive"
    }
  ],
  "transactionHash": "0x2180c76270e609f7c63ceca74618012b1db5aa13ca3cdfd6aa679a8bf38a58c2",
  "args": [
    "0x10C86853225241e9F4D13D97C81E5050C5C2e39b",
    "0xb28FA23348566496577151153C0Ce80e8328dda2"
  ],
  "numDeployments": 1,
  "solcInputHash": "5d73b6fc5d0633ca1563752232c0d8dc",
  "bytecode": "0x608060405260006001553480156200001657600080fd5b506040516200226138038062002261833981016040819052620000399162000150565b81806001600160a01b0381166200006a57604051631e4fbdf760e01b81526000600482015260240160405180910390fd5b62000075816200008b565b5062000083905081620000db565b50506200018f565b600080546001600160a01b038381166001600160a01b0319831681178455604051919092169283917f8be0079c531659141344cd1fd0a4f28419497f9722a3daafe3b4186f6b6457e09190a35050565b6002546040516001600160a01b038084169216907f6aef1fb5b23d0e109fc7f2b0601019e1edbacd177e31a441ec8548e8dd14f0f790600090a3600280546001600160a01b0319166001600160a01b0392909216919091179055565b6001600160a01b03811681146200014d57600080fd5b50565b600080604083850312156200016457600080fd5b8251620001718162000137565b6020840151909250620001848162000137565b809150509250929050565b6120c2806200019f6000396000f3fe6080604052600436106101d15760003560e01c80639ed93318116100f7578063c67d174211610095578063e69afad811610064578063e69afad814610554578063f2a5808414610592578063f2fde38b146105b2578063ff5b6767146105d257600080fd5b8063c67d1742146104bb578063cca5aa86146104f4578063db0b01f214610514578063e28e2ef61461053457600080fd5b8063ac92ef43116100d1578063ac92ef431461043b578063aec64e911461045b578063b59cf0d91461047b578063c6767d721461049b57600080fd5b80639ed93318146103db578063a4c539d7146103fb578063a74d8b3e1461041b57600080fd5b80635491b7d01161016f57806382746ff01161013e57806382746ff0146103495780638da5cb5b1461036957806391836b411461039b57806395d0b7d7146103bb57600080fd5b80635491b7d0146102d45780635f8f3a02146102f4578063715018a614610314578063749ceb7f1461032957600080fd5b80631f5195b7116101ab5780631f5195b7146102545780632967aa191461027457806332776bcb146102945780633cebb823146102b457600080fd5b806304477e12146101dd5780630d4b90c7146102125780630fe3de931461023457600080fd5b366101d857005b600080fd5b3480156101e957600080fd5b506101fd6101f8366004611b50565b610622565b60405190151581526020015b60405180910390f35b34801561021e57600080fd5b5061023261022d366004611b80565b6106b0565b005b34801561024057600080fd5b5061023261024f366004611b80565b6106c9565b34801561026057600080fd5b5061023261026f366004611ba2565b6106dd565b34801561028057600080fd5b5061023261028f366004611be4565b610741565b3480156102a057600080fd5b506102326102af366004611c30565b61075c565b3480156102c057600080fd5b506102326102cf366004611c55565b610770565b3480156102e057600080fd5b506102326102ef366004611c79565b610784565b34801561030057600080fd5b5061023261030f366004611c30565b610934565b34801561032057600080fd5b50610232610948565b34801561033557600080fd5b50610232610344366004611ca7565b61095c565b34801561035557600080fd5b50610232610364366004611d34565b610971565b34801561037557600080fd5b506000546001600160a01b03165b6040516001600160a01b039091168152602001610209565b3480156103a757600080fd5b506102326103b6366004611b80565b610985565b3480156103c757600080fd5b506101fd6103d6366004611b50565b610999565b3480156103e757600080fd5b506102326103f6366004611c55565b6109fe565b34801561040757600080fd5b50610232610416366004611c55565b610c9e565b34801561042757600080fd5b50610232610436366004611b50565b610d85565b34801561044757600080fd5b50610232610456366004611ca7565b610d99565b34801561046757600080fd5b50610232610476366004611ca7565b610dae565b34801561048757600080fd5b50610232610496366004611ca7565b610dc3565b3480156104a757600080fd5b506102326104b6366004611b80565b610dd8565b3480156104c757600080fd5b506103836104d6366004611d59565b6000908152600360205260409020600701546001600160a01b031690565b34801561050057600080fd5b5061023261050f366004611b80565b610dec565b34801561052057600080fd5b5061023261052f366004611b80565b610e00565b34801561054057600080fd5b5061023261054f366004611b50565b610e14565b34801561056057600080fd5b5061058461056f366004611d59565b60009081526003602052604090206008015490565b604051908152602001610209565b34801561059e57600080fd5b506102326105ad366004611b50565b610e28565b3480156105be57600080fd5b506102326105cd366004611c55565b610e3c565b3480156105de57600080fd5b5061060e6105ed366004611d59565b600090815260036020526040902060070154600160b01b900462ffffff1690565b60405162ffffff9091168152602001610209565b6000805b6000848152600360205260409020600601548110156106a457600084815260036020526040902060060180546001600160a01b03851691908390811061066e5761066e611d72565b6000918252602090912001546001600160a01b0316036106925760019150506106aa565b8061069c81611d9e565b915050610626565b50600090505b92915050565b816106ba81610e77565b6106c48383610eb0565b505050565b816106d381610e77565b6106c48383610f13565b6106e5610f76565b6106f0838383610fa3565b6106c45760405162461bcd60e51b815260206004820152601860248201527f546f6b656e207769746864726177616c206661696c65642e000000000000000060448201526064015b60405180910390fd5b8261074b81610e77565b6107568484846110d8565b50505050565b8161076681610e77565b6106c4838361117d565b610778610f76565b61078181611209565b50565b60008381526003602090815260408083206001600160a01b0385168452600101909152812080548492906107b9908490611db7565b9091555050600083815260036020526040812060020180548492906107df908490611db7565b909155505060008381526003602081815260408084206001600160a01b0386168086526001820184528286205495899052938352600201548151878152928301949094528101929092529084907f10e30ac8851287ca7ad5a031f196d2e84b856669a5195988880227397ebd50579060600160405180910390a3600083815260036020526040908190206007015460025491516323b872dd60e01b81523360048201526001600160a01b039283166024820152604481018590529116906323b872dd906064016020604051808303816000875af11580156108c4573d6000803e3d6000fd5b505050506040513d601f19601f820116820180604052508101906108e89190611dca565b6106c45760405162461bcd60e51b815260206004820152601c60248201527f53706f6e736f7273686970206164646974696f6e206661696c65642e000000006044820152606401610738565b8161093e81610e77565b6106c48383611265565b610950610f76565b61095a60006112f1565b565b8261096681610e77565b610756848484611341565b8161097b81610e77565b6106c483836113ae565b8161098f81610e77565b6106c48383611441565b60008281526003602090815260408083206001600160a01b0385168452600901909152812054810b818113806109f65750600084815260036020526040902060070154600160a81b900460ff1680156109f6575060008160000b12155b949350505050565b60025460405163962bd2f560e01b81526001600160a01b0383811660048301529091169063962bd2f590602401602060405180830381865afa158015610a48573d6000803e3d6000fd5b505050506040513d601f19601f82011682018060405250810190610a6c9190611dca565b610ade5760405162461bcd60e51b815260206004820152603b60248201527f54686973206163636f756e74206973206e6f742063757272656e746c7920616c60448201527f6c6f77656420746f206372656174652061206e65772067616d652e00000000006064820152608401610738565b60018054906000610aee83611d9e565b90915550506001546040516001600160a01b038316907fc07d6fc5db170f8be7da51bea7bf502fb674192c618536ee210555994694b0b790600090a3610b36600154826114a4565b6001546002546040805163c55dae6360e01b81529051610bae93926001600160a01b03169163c55dae639160048083019260209291908290030181865afa158015610b85573d6000803e3d6000fd5b505050506040513d601f19601f82011682018060405250810190610ba99190611de7565b611519565b60015460025460408051635a05720f60e01b81529051610c2693926001600160a01b031691635a05720f9160048083019260209291908290030181865afa158015610bfd573d6000803e3d6000fd5b505050506040513d601f19601f82011682018060405250810190610c219190611e04565b6113ae565b6001546002546040805163311cb27f60e21b8152905161078193926001600160a01b03169163c472c9fc9160048083019260209291908290030181865afa158015610c75573d6000803e3d6000fd5b505050506040513d601f19601f82011682018060405250810190610c999190611e21565b6115a6565b610ca6610f76565b604080516001600160a01b03831681524760208201527fc32d3c7eb0f275cbb5b72b3d3c688269430f30e5b9bb36980396edd9101c615c910160405180910390a16000816001600160a01b03164760405160006040518083038185875af1925050503d8060008114610d34576040519150601f19603f3d011682016040523d82523d6000602084013e610d39565b606091505b5050905080610d815760405162461bcd60e51b81526020600482015260146024820152732330b4b632b2103a379039b2b7321022ba3432b960611b6044820152606401610738565b5050565b81610d8f81610e77565b6106c48383611672565b82610da381610e77565b610756848484611839565b82610db881610e77565b6107568484846118a6565b82610dcd81610e77565b610756848484611913565b81610de281610e77565b6106c483836115a6565b81610df681610e77565b6106c48383611980565b81610e0a81610e77565b6106c483836119e3565b81610e1e81610e77565b6106c483836114a4565b81610e3281610e77565b6106c48383611a48565b610e44610f76565b6001600160a01b038116610e6e57604051631e4fbdf760e01b815260006004820152602401610738565b610781816112f1565b6000818152600360205260409020546001600160a01b0316331461078157604051630f04609b60e11b8152336004820152602401610738565b60008281526003602090815260409182902060040154825190815290810183905283917fbbcafe63359bcff7654d7a99c52ec72a9c0be87db1c9a932d1e4a7744e79a455910160405180910390a260009182526003602052604090912060040155565b600082815260036020908152604091829020600e0154825190815290810183905283917f67a629e5501c630ff39bebef792465529513c270093ac888c45b3edc5e69d2ab910160405180910390a2600091825260036020526040909120600e0155565b6000546001600160a01b0316331461095a5760405163118cdaa760e01b8152336004820152602401610738565b60405163a9059cbb60e01b81526001600160a01b038481166004830152602482018490526000919083169063a9059cbb906044016020604051808303816000875af1158015610ff6573d6000803e3d6000fd5b505050506040513d601f19601f8201168201806040525081019061101a9190611dca565b50604080516001600160a01b0386811682526020820186905284168183015290517fa509ab47ac3aeca0e9b7bbf64da33e62070bf4cfc81f2cfbdac1915196238fbc9181900360600190a160405163a9059cbb60e01b81526001600160a01b0385811660048301526024820185905283169063a9059cbb906044016020604051808303816000875af11580156110b4573d6000803e3d6000fd5b505050506040513d601f19601f820116820180604052508101906109f69190611dca565b60008381526003602090815260408083206001600160a01b0386168085526009909101835281842054825190850b81529385900b92840192909252909185917f36d6af828dc1088cf4e2d2289ad41652bd7b1d9f509561de3a6d00f985c3bc8a910160405180910390a360009283526003602090815260408085206001600160a01b03949094168552600990930190529120805460ff191660ff909216919091179055565b600082815260036020908152604091829020600701548251600160a01b90910460ff16151581528315159181019190915283917fe0072a3bb818554c5ff6b4242ec44c98234566a9906da53244e4770ada6711fa910160405180910390a26000918252600360205260409091206007018054911515600160a01b0260ff60a01b19909216919091179055565b6002546040516001600160a01b038084169216907f6aef1fb5b23d0e109fc7f2b0601019e1edbacd177e31a441ec8548e8dd14f0f790600090a3600280546001600160a01b0319166001600160a01b0392909216919091179055565b600082815260036020908152604091829020600701548251600160a81b90910460ff16151581528315159181019190915283917f923f7e007d58f85a4ecc82e24a2a15f7b9bff4b81dbb74ac6d6a76e33deab14c910160405180910390a26000918252600360205260409091206007018054911515600160a81b0260ff60a81b19909216919091179055565b600080546001600160a01b038381166001600160a01b0319831681178455604051919092169283917f8be0079c531659141344cd1fd0a4f28419497f9722a3daafe3b4186f6b6457e09190a35050565b827ffcba7bb580249b37c57a383df9d77e5a8c8f99fafd87cba4cabf8463aaa20ac660036000868152602001908152602001600020600c01848460405161138a93929190611e9d565b60405180910390a26000838152600360205260409020600c01610756828483611fa2565b600082815260036020908152604091829020600701548251600160b01b90910462ffffff908116825284169181019190915283917f76b40899482063dadc56c8caf7eb8b85edb3e5da92c1a604479689568d13393a910160405180910390a2600091825260036020526040909120600701805462ffffff909216600160b01b0262ffffff60b01b19909216919091179055565b60008281526003602090815260409182902060050154825190815290810183905283917fad296ecf0272e9519b222dae5652769fb136c39943581e321420d008b6615bcd910160405180910390a260009182526003602052604090912060050155565b6000828152600360205260408082205490516001600160a01b038085169392169185917f6cfdb3d3801f9c41b53a400e294f9c131a33db9e7380cd3cb54491b8697d75f29190a460009182526003602052604090912080546001600160a01b0319166001600160a01b03909216919091179055565b6000828152600360209081526040918290206007015482516001600160a01b0391821681529084169181019190915283917f13e1ff6cbbc51467c32451419e5ecf188b93f6de235e0544d0ae76e9a9ce6e4f910160405180910390a260009182526003602052604090912060070180546001600160a01b0319166001600160a01b03909216919091179055565b600160ff1b811061160f5760405162461bcd60e51b815260206004820152602d60248201527f4d6178207175657374696f6e20626964206973206f7574206f6620746865206160448201526c363637bbb2b2103930b733b29760991b6064820152608401610738565b60008281526003602090815260409182902060080154825190815290810183905283917ff87b3530ea8d7a100d7e1e603159fd3f5ca7cf3b1ba034217b4400158cb12ca2910160405180910390a260009182526003602052604090912060080155565b60008060005b6000858152600360205260409020600601548110156116f457600085815260036020526040902060060180546001600160a01b0386169190839081106116c0576116c0611d72565b6000918252602090912001546001600160a01b0316036116e257600192508091505b806116ec81611d9e565b915050611678565b5081156107565760008481526003602052604090206006015461171990600190612063565b8110156117ba576000848152600360205260409020600601805461173f90600190612063565b8154811061174f5761174f611d72565b60009182526020808320909101548683526003909152604090912060060180546001600160a01b03909216918390811061178b5761178b611d72565b9060005260206000200160006101000a8154816001600160a01b0302191690836001600160a01b031602179055505b60008481526003602052604090206006018054806117da576117da612076565b600082815260208120820160001990810180546001600160a01b03191690559091019091556040516001600160a01b0385169186917f98fd90e7e22f2709a094ef673074a97b8b7243f2526fa513b3d20795d8b8fbdf9190a350505050565b827f2ea504e91695928075c1286af366941eec6105922ffd95cba11e55eed8f2317660036000868152602001908152602001600020600a01848460405161188293929190611e9d565b60405180910390a26000838152600360205260409020600a01610756828483611fa2565b827f2ea504e91695928075c1286af366941eec6105922ffd95cba11e55eed8f2317660036000868152602001908152602001600020600b0184846040516118ef93929190611e9d565b60405180910390a26000838152600360205260409020600b01610756828483611fa2565b827f4c2f13dc7db975286d349086e9a3ecb299ce31d7313e09fdb1f9f9e2058f5cd360036000868152602001908152602001600020600d01848460405161195c93929190611e9d565b60405180910390a26000838152600360205260409020600d01610756828483611fa2565b600082815260036020908152604091829020600f0154825190815290810183905283917f2a1474f4dd6e5500a25f78eb71cbbf749117b9986fb09c4b0b1e52dadd2bffc0910160405180910390a2600091825260036020526040909120600f0155565b60008281526003602081815260409283902090910154825190815290810183905283917f534178e2912ca037217cc6ee25333c250e9d17c69540f1fc99cea2316d387391910160405180910390a2600091825260036020819052604090922090910155565b6000805b600084815260036020526040902060060154811015611ac557600084815260036020526040902060060180546001600160a01b038516919083908110611a9457611a94611d72565b6000918252602090912001546001600160a01b031603611ab357600191505b80611abd81611d9e565b915050611a4c565b50806106c4576000838152600360209081526040808320600601805460018101825590845291832090910180546001600160a01b0319166001600160a01b0386169081179091559051909185917faa68a7db4e0c83b3d7e852cfbc83e1af0a1d0ae02632beb7484de3470768569e9190a3505050565b6001600160a01b038116811461078157600080fd5b60008060408385031215611b6357600080fd5b823591506020830135611b7581611b3b565b809150509250929050565b60008060408385031215611b9357600080fd5b50508035926020909101359150565b600080600060608486031215611bb757600080fd5b8335611bc281611b3b565b9250602084013591506040840135611bd981611b3b565b809150509250925092565b600080600060608486031215611bf957600080fd5b833592506020840135611c0b81611b3b565b91506040840135600081900b8114611bd957600080fd5b801515811461078157600080fd5b60008060408385031215611c4357600080fd5b823591506020830135611b7581611c22565b600060208284031215611c6757600080fd5b8135611c7281611b3b565b9392505050565b600080600060608486031215611c8e57600080fd5b83359250602084013591506040840135611bd981611b3b565b600080600060408486031215611cbc57600080fd5b83359250602084013567ffffffffffffffff80821115611cdb57600080fd5b818601915086601f830112611cef57600080fd5b813581811115611cfe57600080fd5b876020828501011115611d1057600080fd5b6020830194508093505050509250925092565b62ffffff8116811461078157600080fd5b60008060408385031215611d4757600080fd5b823591506020830135611b7581611d23565b600060208284031215611d6b57600080fd5b5035919050565b634e487b7160e01b600052603260045260246000fd5b634e487b7160e01b600052601160045260246000fd5b600060018201611db057611db0611d88565b5060010190565b808201808211156106aa576106aa611d88565b600060208284031215611ddc57600080fd5b8151611c7281611c22565b600060208284031215611df957600080fd5b8151611c7281611b3b565b600060208284031215611e1657600080fd5b8151611c7281611d23565b600060208284031215611e3357600080fd5b5051919050565b600181811c90821680611e4e57607f821691505b602082108103611e6e57634e487b7160e01b600052602260045260246000fd5b50919050565b81835281816020850137506000828201602090810191909152601f909101601f19169091010190565b604081526000808554611eaf81611e3a565b8060408601526060600180841660008114611ed15760018114611eeb57611f1c565b60ff1985168884015283151560051b880183019550611f1c565b8a60005260208060002060005b86811015611f135781548b8201870152908401908201611ef8565b8a018501975050505b50505050508281036020840152611f34818587611e74565b9695505050505050565b634e487b7160e01b600052604160045260246000fd5b601f8211156106c457600081815260208120601f850160051c81016020861015611f7b5750805b601f850160051c820191505b81811015611f9a57828155600101611f87565b505050505050565b67ffffffffffffffff831115611fba57611fba611f3e565b611fce83611fc88354611e3a565b83611f54565b6000601f8411600181146120025760008515611fea5750838201355b600019600387901b1c1916600186901b17835561205c565b600083815260209020601f19861690835b828110156120335786850135825560209485019460019092019101612013565b50868210156120505760001960f88860031b161c19848701351681555b505060018560011b0183555b5050505050565b818103818111156106aa576106aa611d88565b634e487b7160e01b600052603160045260246000fdfea26469706673582212204104de3a5bd6d73cf8e87d118f326e022fc237ad0f68e91886c79199395e697a64736f6c63430008140033",
  "devdoc": {
    "errors": {
      "OwnableInvalidOwner(address)": [
        {
          "details": "The owner is not a valid owner account. (eg. `address(0)`)"
        }
      ],
      "OwnableUnauthorizedAccount(address)": [
        {
          "details": "The caller account is not authorized to perform an operation."
        }
      ]
    },
    "kind": "dev",
    "methods": {
      "owner()": {
        "details": "Returns the address of the current owner."
      },
      "renounceOwnership()": {
        "details": "Leaves the contract without owner. It will not be possible to call `onlyOwner` functions. Can only be called by the current owner. NOTE: Renouncing ownership will leave the contract without an owner, thereby disabling any functionality that is only available to the owner."
      },
      "transferOwnership(address)": {
        "details": "Transfers ownership of the contract to a new account (`newOwner`). Can only be called by the current owner."
      }
    },
    "version": 1
  },
  "userdoc": {
    "kind": "user",
    "methods": {
      "payoutEth(address)": {
        "notice": "Function that allows the owner to withdraw all the Ether in the contract The function can only be called by the owner of the contract as defined by the modifier"
      }
    },
    "version": 1
  },
  "storageLayout": {
    "storage": [
      {
        "astId": 8,
        "contract": "contracts/Games.sol:Games",
        "label": "_owner",
        "offset": 0,
        "slot": "0",
        "type": "t_address"
      },
      {
        "astId": 2661,
        "contract": "contracts/Games.sol:Games",
        "label": "maxUsedID",
        "offset": 0,
        "slot": "1",
        "type": "t_uint256"
      },
      {
        "astId": 2664,
        "contract": "contracts/Games.sol:Games",
        "label": "controller",
        "offset": 0,
        "slot": "2",
        "type": "t_contract(IGamesController)3998"
      },
      {
        "astId": 2669,
        "contract": "contracts/Games.sol:Games",
        "label": "rows",
        "offset": 0,
        "slot": "3",
        "type": "t_mapping(t_uint256,t_struct(Game)2658_storage)"
      }
    ],
    "types": {
      "t_address": {
        "encoding": "inplace",
        "label": "address",
        "numberOfBytes": "20"
      },
      "t_array(t_address)dyn_storage": {
        "base": "t_address",
        "encoding": "dynamic_array",
        "label": "address[]",
        "numberOfBytes": "32"
      },
      "t_bool": {
        "encoding": "inplace",
        "label": "bool",
        "numberOfBytes": "1"
      },
      "t_contract(IERC20)877": {
        "encoding": "inplace",
        "label": "contract IERC20",
        "numberOfBytes": "20"
      },
      "t_contract(IGamesController)3998": {
        "encoding": "inplace",
        "label": "contract IGamesController",
        "numberOfBytes": "20"
      },
      "t_int8": {
        "encoding": "inplace",
        "label": "int8",
        "numberOfBytes": "1"
      },
      "t_mapping(t_address,t_int8)": {
        "encoding": "mapping",
        "key": "t_address",
        "label": "mapping(address => int8)",
        "numberOfBytes": "32",
        "value": "t_int8"
      },
      "t_mapping(t_address,t_uint256)": {
        "encoding": "mapping",
        "key": "t_address",
        "label": "mapping(address => uint256)",
        "numberOfBytes": "32",
        "value": "t_uint256"
      },
      "t_mapping(t_uint256,t_struct(Game)2658_storage)": {
        "encoding": "mapping",
        "key": "t_uint256",
        "label": "mapping(uint256 => struct Games.Game)",
        "numberOfBytes": "32",
        "value": "t_struct(Game)2658_storage"
      },
      "t_string_storage": {
        "encoding": "bytes",
        "label": "string",
        "numberOfBytes": "32"
      },
      "t_struct(Game)2658_storage": {
        "encoding": "inplace",
        "label": "struct Games.Game",
        "members": [
          {
            "astId": 2615,
            "contract": "contracts/Games.sol:Games",
            "label": "lister",
            "offset": 0,
            "slot": "0",
            "type": "t_address"
          },
          {
            "astId": 2619,
            "contract": "contracts/Games.sol:Games",
            "label": "sponsors",
            "offset": 0,
            "slot": "1",
            "type": "t_mapping(t_address,t_uint256)"
          },
          {
            "astId": 2621,
            "contract": "contracts/Games.sol:Games",
            "label": "totalSponsoredAmount",
            "offset": 0,
            "slot": "2",
            "type": "t_uint256"
          },
          {
            "astId": 2623,
            "contract": "contracts/Games.sol:Games",
            "label": "checkInStart",
            "offset": 0,
            "slot": "3",
            "type": "t_uint256"
          },
          {
            "astId": 2625,
            "contract": "contracts/Games.sol:Games",
            "label": "endTime",
            "offset": 0,
            "slot": "4",
            "type": "t_uint256"
          },
          {
            "astId": 2627,
            "contract": "contracts/Games.sol:Games",
            "label": "locationID",
            "offset": 0,
            "slot": "5",
            "type": "t_uint256"
          },
          {
            "astId": 2630,
            "contract": "contracts/Games.sol:Games",
            "label": "referees",
            "offset": 0,
            "slot": "6",
            "type": "t_array(t_address)dyn_storage"
          },
          {
            "astId": 2633,
            "contract": "contracts/Games.sol:Games",
            "label": "gameToken",
            "offset": 0,
            "slot": "7",
            "type": "t_contract(IERC20)877"
          },
          {
            "astId": 2635,
            "contract": "contracts/Games.sol:Games",
            "label": "checkInRequired",
            "offset": 20,
            "slot": "7",
            "type": "t_bool"
          },
          {
            "astId": 2637,
            "contract": "contracts/Games.sol:Games",
            "label": "openToAnyAsker",
            "offset": 21,
            "slot": "7",
            "type": "t_bool"
          },
          {
            "astId": 2639,
            "contract": "contracts/Games.sol:Games",
            "label": "sponsorFractionOfOptionPool",
            "offset": 22,
            "slot": "7",
            "type": "t_uint24"
          },
          {
            "astId": 2641,
            "contract": "contracts/Games.sol:Games",
            "label": "maxQuestionBid",
            "offset": 0,
            "slot": "8",
            "type": "t_uint256"
          },
          {
            "astId": 2645,
            "contract": "contracts/Games.sol:Games",
            "label": "askerApprovals",
            "offset": 0,
            "slot": "9",
            "type": "t_mapping(t_address,t_int8)"
          },
          {
            "astId": 2647,
            "contract": "contracts/Games.sol:Games",
            "label": "imageURI",
            "offset": 0,
            "slot": "10",
            "type": "t_string_storage"
          },
          {
            "astId": 2649,
            "contract": "contracts/Games.sol:Games",
            "label": "eventURI",
            "offset": 0,
            "slot": "11",
            "type": "t_string_storage"
          },
          {
            "astId": 2651,
            "contract": "contracts/Games.sol:Games",
            "label": "title140",
            "offset": 0,
            "slot": "12",
            "type": "t_string_storage"
          },
          {
            "astId": 2653,
            "contract": "contracts/Games.sol:Games",
            "label": "descr500",
            "offset": 0,
            "slot": "13",
            "type": "t_string_storage"
          },
          {
            "astId": 2655,
            "contract": "contracts/Games.sol:Games",
            "label": "listStart",
            "offset": 0,
            "slot": "14",
            "type": "t_uint256"
          },
          {
            "astId": 2657,
            "contract": "contracts/Games.sol:Games",
            "label": "listEnd",
            "offset": 0,
            "slot": "15",
            "type": "t_uint256"
          }
        ],
        "numberOfBytes": "512"
      },
      "t_uint24": {
        "encoding": "inplace",
        "label": "uint24",
        "numberOfBytes": "3"
      },
      "t_uint256": {
        "encoding": "inplace",
        "label": "uint256",
        "numberOfBytes": "32"
      }
    }
  }
}