{
  "address": "0xEFf71E20Dc15BcCD8cc511753846754df9879abb",
  "abi": [
    {
      "inputs": [
        {
          "internalType": "address payable",
          "name": "initialOwner",
          "type": "address"
        }
      ],
      "stateMutability": "nonpayable",
      "type": "constructor"
    },
    {
      "inputs": [
        {
          "internalType": "address",
          "name": "owner",
          "type": "address"
        }
      ],
      "name": "OwnableInvalidOwner",
      "type": "error"
    },
    {
      "inputs": [
        {
          "internalType": "address",
          "name": "account",
          "type": "address"
        }
      ],
      "name": "OwnableUnauthorizedAccount",
      "type": "error"
    },
    {
      "inputs": [
        {
          "internalType": "address",
          "name": "attempter",
          "type": "address"
        }
      ],
      "name": "PropertyChangeAttemptByNonLister",
      "type": "error"
    },
    {
      "anonymous": false,
      "inputs": [
        {
          "indexed": true,
          "internalType": "uint256",
          "name": "rowID",
          "type": "uint256"
        },
        {
          "indexed": false,
          "internalType": "int32",
          "name": "oldValue",
          "type": "int32"
        },
        {
          "indexed": false,
          "internalType": "int32",
          "name": "newValue",
          "type": "int32"
        }
      ],
      "name": "CmAltitudeChanged",
      "type": "event"
    },
    {
      "anonymous": false,
      "inputs": [
        {
          "indexed": true,
          "internalType": "uint256",
          "name": "rowID",
          "type": "uint256"
        },
        {
          "indexed": false,
          "internalType": "uint32",
          "name": "oldValue",
          "type": "uint32"
        },
        {
          "indexed": false,
          "internalType": "uint32",
          "name": "newValue",
          "type": "uint32"
        }
      ],
      "name": "CmRadiusChanged",
      "type": "event"
    },
    {
      "anonymous": false,
      "inputs": [
        {
          "indexed": true,
          "internalType": "address",
          "name": "lister",
          "type": "address"
        },
        {
          "indexed": true,
          "internalType": "uint256",
          "name": "newId",
          "type": "uint256"
        }
      ],
      "name": "Creation",
      "type": "event"
    },
    {
      "anonymous": false,
      "inputs": [
        {
          "indexed": true,
          "internalType": "uint256",
          "name": "rowID",
          "type": "uint256"
        },
        {
          "indexed": false,
          "internalType": "string",
          "name": "oldValue",
          "type": "string"
        },
        {
          "indexed": false,
          "internalType": "string",
          "name": "newValue",
          "type": "string"
        }
      ],
      "name": "Descr500Changed",
      "type": "event"
    },
    {
      "anonymous": false,
      "inputs": [
        {
          "indexed": false,
          "internalType": "address",
          "name": "recipient",
          "type": "address"
        },
        {
          "indexed": false,
          "internalType": "uint256",
          "name": "amountPaidOut",
          "type": "uint256"
        },
        {
          "indexed": false,
          "internalType": "contract IERC20",
          "name": "tokenContract",
          "type": "address"
        }
      ],
      "name": "ERC20Withdrawal",
      "type": "event"
    },
    {
      "anonymous": false,
      "inputs": [
        {
          "indexed": false,
          "internalType": "address",
          "name": "recipient",
          "type": "address"
        },
        {
          "indexed": false,
          "internalType": "uint256",
          "name": "amountPaidOut",
          "type": "uint256"
        }
      ],
      "name": "EthWithdrawal",
      "type": "event"
    },
    {
      "anonymous": false,
      "inputs": [
        {
          "indexed": true,
          "internalType": "uint256",
          "name": "rowID",
          "type": "uint256"
        },
        {
          "indexed": false,
          "internalType": "string",
          "name": "oldValue",
          "type": "string"
        },
        {
          "indexed": false,
          "internalType": "string",
          "name": "newValue",
          "type": "string"
        }
      ],
      "name": "ImageURIChanged",
      "type": "event"
    },
    {
      "anonymous": false,
      "inputs": [
        {
          "indexed": true,
          "internalType": "uint256",
          "name": "rowID",
          "type": "uint256"
        },
        {
          "indexed": true,
          "internalType": "address",
          "name": "oldValue",
          "type": "address"
        },
        {
          "indexed": true,
          "internalType": "address",
          "name": "newValue",
          "type": "address"
        }
      ],
      "name": "ListerChanged",
      "type": "event"
    },
    {
      "anonymous": false,
      "inputs": [
        {
          "indexed": true,
          "internalType": "address",
          "name": "previousOwner",
          "type": "address"
        },
        {
          "indexed": true,
          "internalType": "address",
          "name": "newOwner",
          "type": "address"
        }
      ],
      "name": "OwnershipTransferred",
      "type": "event"
    },
    {
      "anonymous": false,
      "inputs": [
        {
          "indexed": true,
          "internalType": "uint256",
          "name": "rowID",
          "type": "uint256"
        },
        {
          "indexed": false,
          "internalType": "uint256",
          "name": "oldValue",
          "type": "uint256"
        },
        {
          "indexed": false,
          "internalType": "uint256",
          "name": "newValue",
          "type": "uint256"
        }
      ],
      "name": "ParentChanged",
      "type": "event"
    },
    {
      "anonymous": false,
      "inputs": [
        {
          "indexed": true,
          "internalType": "uint256",
          "name": "rowID",
          "type": "uint256"
        },
        {
          "indexed": false,
          "internalType": "int48",
          "name": "oldValue",
          "type": "int48"
        },
        {
          "indexed": false,
          "internalType": "int48",
          "name": "newValue",
          "type": "int48"
        }
      ],
      "name": "PicolatChanged",
      "type": "event"
    },
    {
      "anonymous": false,
      "inputs": [
        {
          "indexed": true,
          "internalType": "uint256",
          "name": "rowID",
          "type": "uint256"
        },
        {
          "indexed": false,
          "internalType": "int48",
          "name": "oldValue",
          "type": "int48"
        },
        {
          "indexed": false,
          "internalType": "int48",
          "name": "newValue",
          "type": "int48"
        }
      ],
      "name": "PicolonChanged",
      "type": "event"
    },
    {
      "anonymous": false,
      "inputs": [
        {
          "indexed": true,
          "internalType": "uint256",
          "name": "rowID",
          "type": "uint256"
        },
        {
          "indexed": true,
          "internalType": "address",
          "name": "oldValue",
          "type": "address"
        },
        {
          "indexed": true,
          "internalType": "address",
          "name": "newValue",
          "type": "address"
        }
      ],
      "name": "SignerChanged",
      "type": "event"
    },
    {
      "anonymous": false,
      "inputs": [
        {
          "indexed": true,
          "internalType": "uint256",
          "name": "rowID",
          "type": "uint256"
        },
        {
          "indexed": false,
          "internalType": "string",
          "name": "oldValue",
          "type": "string"
        },
        {
          "indexed": false,
          "internalType": "string",
          "name": "newValue",
          "type": "string"
        }
      ],
      "name": "Title140Changed",
      "type": "event"
    },
    {
      "anonymous": false,
      "inputs": [
        {
          "indexed": true,
          "internalType": "uint256",
          "name": "rowID",
          "type": "uint256"
        },
        {
          "indexed": false,
          "internalType": "string",
          "name": "oldValue",
          "type": "string"
        },
        {
          "indexed": false,
          "internalType": "string",
          "name": "newValue",
          "type": "string"
        }
      ],
      "name": "VenueURIChanged",
      "type": "event"
    },
    {
      "inputs": [
        {
          "internalType": "uint256",
          "name": "rowID",
          "type": "uint256"
        },
        {
          "internalType": "int32",
          "name": "newValue",
          "type": "int32"
        }
      ],
      "name": "changeCmAltitude",
      "outputs": [],
      "stateMutability": "nonpayable",
      "type": "function"
    },
    {
      "inputs": [
        {
          "internalType": "uint256",
          "name": "rowID",
          "type": "uint256"
        },
        {
          "internalType": "uint32",
          "name": "newValue",
          "type": "uint32"
        }
      ],
      "name": "changeCmRadius",
      "outputs": [],
      "stateMutability": "nonpayable",
      "type": "function"
    },
    {
      "inputs": [
        {
          "internalType": "uint256",
          "name": "rowID",
          "type": "uint256"
        },
        {
          "internalType": "int48",
          "name": "picolat",
          "type": "int48"
        },
        {
          "internalType": "int48",
          "name": "picolon",
          "type": "int48"
        }
      ],
      "name": "changeCoordinates",
      "outputs": [],
      "stateMutability": "nonpayable",
      "type": "function"
    },
    {
      "inputs": [
        {
          "internalType": "uint256",
          "name": "rowID",
          "type": "uint256"
        },
        {
          "internalType": "string",
          "name": "newValue",
          "type": "string"
        }
      ],
      "name": "changeDescr500",
      "outputs": [],
      "stateMutability": "nonpayable",
      "type": "function"
    },
    {
      "inputs": [
        {
          "internalType": "uint256",
          "name": "rowID",
          "type": "uint256"
        },
        {
          "internalType": "string",
          "name": "newValue",
          "type": "string"
        }
      ],
      "name": "changeImageURI",
      "outputs": [],
      "stateMutability": "nonpayable",
      "type": "function"
    },
    {
      "inputs": [
        {
          "internalType": "uint256",
          "name": "rowID",
          "type": "uint256"
        },
        {
          "internalType": "address",
          "name": "newValue",
          "type": "address"
        }
      ],
      "name": "changeLister",
      "outputs": [],
      "stateMutability": "nonpayable",
      "type": "function"
    },
    {
      "inputs": [
        {
          "internalType": "uint256",
          "name": "rowID",
          "type": "uint256"
        },
        {
          "internalType": "uint256",
          "name": "newValue",
          "type": "uint256"
        }
      ],
      "name": "changeParent",
      "outputs": [],
      "stateMutability": "nonpayable",
      "type": "function"
    },
    {
      "inputs": [
        {
          "internalType": "uint256",
          "name": "rowID",
          "type": "uint256"
        },
        {
          "internalType": "int48",
          "name": "newValue",
          "type": "int48"
        }
      ],
      "name": "changePicolat",
      "outputs": [],
      "stateMutability": "nonpayable",
      "type": "function"
    },
    {
      "inputs": [
        {
          "internalType": "uint256",
          "name": "rowID",
          "type": "uint256"
        },
        {
          "internalType": "int48",
          "name": "newValue",
          "type": "int48"
        }
      ],
      "name": "changePicolon",
      "outputs": [],
      "stateMutability": "nonpayable",
      "type": "function"
    },
    {
      "inputs": [
        {
          "internalType": "uint256",
          "name": "rowID",
          "type": "uint256"
        },
        {
          "internalType": "address",
          "name": "newValue",
          "type": "address"
        }
      ],
      "name": "changeSigner",
      "outputs": [],
      "stateMutability": "nonpayable",
      "type": "function"
    },
    {
      "inputs": [
        {
          "internalType": "uint256",
          "name": "rowID",
          "type": "uint256"
        },
        {
          "internalType": "string",
          "name": "newValue",
          "type": "string"
        }
      ],
      "name": "changeTitle140",
      "outputs": [],
      "stateMutability": "nonpayable",
      "type": "function"
    },
    {
      "inputs": [
        {
          "internalType": "uint256",
          "name": "rowID",
          "type": "uint256"
        },
        {
          "internalType": "string",
          "name": "newValue",
          "type": "string"
        }
      ],
      "name": "changeVenueURI",
      "outputs": [],
      "stateMutability": "nonpayable",
      "type": "function"
    },
    {
      "inputs": [
        {
          "internalType": "address",
          "name": "lister",
          "type": "address"
        },
        {
          "internalType": "int48",
          "name": "picolat",
          "type": "int48"
        },
        {
          "internalType": "int48",
          "name": "picolon",
          "type": "int48"
        },
        {
          "internalType": "uint32",
          "name": "cmRadius",
          "type": "uint32"
        }
      ],
      "name": "create",
      "outputs": [],
      "stateMutability": "nonpayable",
      "type": "function"
    },
    {
      "inputs": [],
      "name": "owner",
      "outputs": [
        {
          "internalType": "address",
          "name": "",
          "type": "address"
        }
      ],
      "stateMutability": "view",
      "type": "function"
    },
    {
      "inputs": [
        {
          "internalType": "address payable",
          "name": "recipient",
          "type": "address"
        }
      ],
      "name": "payoutEth",
      "outputs": [],
      "stateMutability": "nonpayable",
      "type": "function"
    },
    {
      "inputs": [],
      "name": "renounceOwnership",
      "outputs": [],
      "stateMutability": "nonpayable",
      "type": "function"
    },
    {
      "inputs": [
        {
          "internalType": "address",
          "name": "newOwner",
          "type": "address"
        }
      ],
      "name": "transferOwnership",
      "outputs": [],
      "stateMutability": "nonpayable",
      "type": "function"
    },
    {
      "inputs": [
        {
          "internalType": "address",
          "name": "recipient",
          "type": "address"
        },
        {
          "internalType": "uint256",
          "name": "payAmount",
          "type": "uint256"
        },
        {
          "internalType": "contract IERC20",
          "name": "tokenContract",
          "type": "address"
        }
      ],
      "name": "withdrawERC20Tokens",
      "outputs": [],
      "stateMutability": "nonpayable",
      "type": "function"
    },
    {
      "stateMutability": "payable",
      "type": "receive"
    }
  ],
  "transactionHash": "0xc89cc9bf5b79bf1830bec10f1526a5c935810f6ef489314dc6c8942289cb2c04",
  "args": [
    "0x10C86853225241e9F4D13D97C81E5050C5C2e39b"
  ],
  "numDeployments": 1,
  "solcInputHash": "a294a85e3ec8b1d3651ff561c84835d0",
  "bytecode": "0x6080604052600060015534801561001557600080fd5b50604051611397380380611397833981016040819052610034916100c5565b80806001600160a01b03811661006457604051631e4fbdf760e01b81526000600482015260240160405180910390fd5b61006d81610075565b5050506100f5565b600080546001600160a01b038381166001600160a01b0319831681178455604051919092169283917f8be0079c531659141344cd1fd0a4f28419497f9722a3daafe3b4186f6b6457e09190a35050565b6000602082840312156100d757600080fd5b81516001600160a01b03811681146100ee57600080fd5b9392505050565b611293806101046000396000f3fe60806040526004361061010d5760003560e01c8063a1cf6b5311610095578063ba74649011610064578063ba7464901461029c578063e28e2ef6146102bc578063e764b011146102dc578063f2fde38b146102fc578063ff08d3fd1461031c57600080fd5b8063a1cf6b531461023c578063a4c539d71461025c578063ac92ef431461017b578063b59cf0d91461027c57600080fd5b8063715018a6116100dc578063715018a61461019b578063749ceb7f146101b057806378e5e8f5146101d05780638d0c71d8146101f05780638da5cb5b1461021057600080fd5b80630676d097146101195780631f5195b71461013b57806344172e4f1461015b57806358d2d9b41461017b57600080fd5b3661011457005b600080fd5b34801561012557600080fd5b50610139610134366004610d6b565b61033c565b005b34801561014757600080fd5b50610139610156366004610db6565b61036e565b34801561016757600080fd5b50610139610176366004610df8565b6103d2565b34801561018757600080fd5b50610139610196366004610e1a565b6103e6565b3480156101a757600080fd5b50610139610417565b3480156101bc57600080fd5b506101396101cb366004610e1a565b61042b565b3480156101dc57600080fd5b506101396101eb366004610ead565b610440565b3480156101fc57600080fd5b5061013961020b366004610eed565b610454565b34801561021c57600080fd5b50600054604080516001600160a01b039092168252519081900360200190f35b34801561024857600080fd5b50610139610257366004610ead565b6104ed565b34801561026857600080fd5b50610139610277366004610f43565b610501565b34801561028857600080fd5b50610139610297366004610e1a565b6105e8565b3480156102a857600080fd5b506101396102b7366004610f67565b6105fd565b3480156102c857600080fd5b506101396102d7366004610f8a565b610611565b3480156102e857600080fd5b506101396102f7366004610f8a565b610625565b34801561030857600080fd5b50610139610317366004610f43565b610639565b34801561032857600080fd5b50610139610337366004610faf565b610677565b8161034681610695565b61035083836106ce565b5050600090815260026020526040902042600490910155565b505050565b610376610752565b61038183838361077f565b6103695760405162461bcd60e51b815260206004820152601860248201527f546f6b656e207769746864726177616c206661696c65642e000000000000000060448201526064015b60405180910390fd5b816103dc81610695565b61035083836108bc565b826103f081610695565b6103fb84848461091f565b6000848152600260205260409020426004909101555b50505050565b61041f610752565b610429600061098c565b565b8261043581610695565b6103fb8484846109dc565b8161044a81610695565b6103508383610a49565b6001805490600061046483610feb565b90915550506001546040516001600160a01b038616907fc07d6fc5db170f8be7da51bea7bf502fb674192c618536ee210555994694b0b790600090a36104ac60015485610ade565b6104b860015484610b53565b6104c460015483610a49565b6104d060015482610beb565b610411600154600090815260026020526040902042600490910155565b816104f781610695565b6103508383610b53565b610509610752565b604080516001600160a01b03831681524760208201527fc32d3c7eb0f275cbb5b72b3d3c688269430f30e5b9bb36980396edd9101c615c910160405180910390a16000816001600160a01b03164760405160006040518083038185875af1925050503d8060008114610597576040519150601f19603f3d011682016040523d82523d6000602084013e61059c565b606091505b50509050806105e45760405162461bcd60e51b81526020600482015260146024820152732330b4b632b2103a379039b2b7321022ba3432b960611b60448201526064016103c9565b5050565b826105f281610695565b6103fb848484610c86565b8161060781610695565b6103508383610beb565b8161061b81610695565b6103508383610ade565b8161062f81610695565b6103508383610cf3565b610641610752565b6001600160a01b03811661066b57604051631e4fbdf760e01b8152600060048201526024016103c9565b6106748161098c565b50565b8261068181610695565b61068b8484610b53565b6103fb8483610a49565b6000818152600260205260409020546001600160a01b0316331461067457604051630f04609b60e11b81523360048201526024016103c9565b600082815260026020818152604092839020909101548251600391820b81529084900b9181019190915283917f2feace98a111129e0b913b01bd4d6b720c93ac7e87f0fbb5e64ed308197c5407910160405180910390a26000918252600260208190526040909220909101805463ffffffff191663ffffffff909216919091179055565b6000546001600160a01b031633146104295760405163118cdaa760e01b81523360048201526024016103c9565b60405163a9059cbb60e01b81526001600160a01b038481166004830152602482018490526000919083169063a9059cbb906044016020604051808303816000875af11580156107d2573d6000803e3d6000fd5b505050506040513d601f19601f820116820180604052508101906107f69190611012565b50604080516001600160a01b0386811682526020820186905284168183015290517fa509ab47ac3aeca0e9b7bbf64da33e62070bf4cfc81f2cfbdac1915196238fbc9181900360600190a160405163a9059cbb60e01b81526001600160a01b0385811660048301526024820185905283169063a9059cbb906044016020604051808303816000875af1158015610890573d6000803e3d6000fd5b505050506040513d601f19601f820116820180604052508101906108b49190611012565b949350505050565b60008281526002602090815260409182902060030154825190815290810183905283917fd6c4347571cebd49451e87a1c1b833ca84791009a139f27d0dcf3159e96a08a5910160405180910390a260009182526002602052604090912060030155565b827f2ea504e91695928075c1286af366941eec6105922ffd95cba11e55eed8f2317660026000868152602001908152602001600020600501848460405161096893929190611097565b60405180910390a2600083815260026020526040902060050161041182848361119c565b600080546001600160a01b038381166001600160a01b0319831681178455604051919092169283917f8be0079c531659141344cd1fd0a4f28419497f9722a3daafe3b4186f6b6457e09190a35050565b827ffcba7bb580249b37c57a383df9d77e5a8c8f99fafd87cba4cabf8463aaa20ac6600260008681526020019081526020016000206007018484604051610a2593929190611097565b60405180910390a2600083815260026020526040902060070161041182848361119c565b600082815260026020908152604091829020600101548251600160d01b909104600590810b825284900b9181019190915283917f039c7b83185706c5b0f32449cbb5810403ec8a78c7449064bb9acd239cfcbbdc910160405180910390a2600091825260026020526040909120600101805465ffffffffffff909216600160d01b026001600160d01b03909216919091179055565b6000828152600260205260408082205490516001600160a01b038085169392169185917f6cfdb3d3801f9c41b53a400e294f9c131a33db9e7380cd3cb54491b8697d75f29190a460009182526002602052604090912080546001600160a01b0319166001600160a01b03909216919091179055565b600082815260026020908152604091829020600101548251600160a01b909104600590810b825284900b9181019190915283917f5d36ee79bfaa020594a16e64a8ad42d211f7d21bc4718002c5054d5da453808e910160405180910390a2600091825260026020526040909120600101805465ffffffffffff909216600160a01b0265ffffffffffff60a01b19909216919091179055565b60008281526002602081815260409283902090910154825164010000000090910463ffffffff908116825284169181019190915283917ff14dc7accbd18f2111a2e3cadc0a775adde82f944baf9627546a339fba3abc32910160405180910390a26000918252600260208190526040909220909101805463ffffffff9092166401000000000267ffffffff0000000019909216919091179055565b827f4c2f13dc7db975286d349086e9a3ecb299ce31d7313e09fdb1f9f9e2058f5cd3600260008681526020019081526020016000206008018484604051610ccf93929190611097565b60405180910390a2600083815260026020526040902060080161041182848361119c565b6000828152600260205260408082206001015490516001600160a01b038085169392169185917f40cb9497a5d64cf5fc1109e0ce040f8931a230fa168e0da6e93d82b6e36650db9190a460009182526002602052604090912080546001600160a01b0319166001600160a01b03909216919091179055565b60008060408385031215610d7e57600080fd5b8235915060208301358060030b8114610d9657600080fd5b809150509250929050565b6001600160a01b038116811461067457600080fd5b600080600060608486031215610dcb57600080fd5b8335610dd681610da1565b9250602084013591506040840135610ded81610da1565b809150509250925092565b60008060408385031215610e0b57600080fd5b50508035926020909101359150565b600080600060408486031215610e2f57600080fd5b83359250602084013567ffffffffffffffff80821115610e4e57600080fd5b818601915086601f830112610e6257600080fd5b813581811115610e7157600080fd5b876020828501011115610e8357600080fd5b6020830194508093505050509250925092565b8035600581900b8114610ea857600080fd5b919050565b60008060408385031215610ec057600080fd5b82359150610ed060208401610e96565b90509250929050565b803563ffffffff81168114610ea857600080fd5b60008060008060808587031215610f0357600080fd5b8435610f0e81610da1565b9350610f1c60208601610e96565b9250610f2a60408601610e96565b9150610f3860608601610ed9565b905092959194509250565b600060208284031215610f5557600080fd5b8135610f6081610da1565b9392505050565b60008060408385031215610f7a57600080fd5b82359150610ed060208401610ed9565b60008060408385031215610f9d57600080fd5b823591506020830135610d9681610da1565b600080600060608486031215610fc457600080fd5b83359250610fd460208501610e96565b9150610fe260408501610e96565b90509250925092565b60006001820161100b57634e487b7160e01b600052601160045260246000fd5b5060010190565b60006020828403121561102457600080fd5b81518015158114610f6057600080fd5b600181811c9082168061104857607f821691505b60208210810361106857634e487b7160e01b600052602260045260246000fd5b50919050565b81835281816020850137506000828201602090810191909152601f909101601f19169091010190565b6040815260008085546110a981611034565b80604086015260606001808416600081146110cb57600181146110e557611116565b60ff1985168884015283151560051b880183019550611116565b8a60005260208060002060005b8681101561110d5781548b82018701529084019082016110f2565b8a018501975050505b5050505050828103602084015261112e81858761106e565b9695505050505050565b634e487b7160e01b600052604160045260246000fd5b601f82111561036957600081815260208120601f850160051c810160208610156111755750805b601f850160051c820191505b8181101561119457828155600101611181565b505050505050565b67ffffffffffffffff8311156111b4576111b4611138565b6111c8836111c28354611034565b8361114e565b6000601f8411600181146111fc57600085156111e45750838201355b600019600387901b1c1916600186901b178355611256565b600083815260209020601f19861690835b8281101561122d578685013582556020948501946001909201910161120d565b508682101561124a5760001960f88860031b161c19848701351681555b505060018560011b0183555b505050505056fea2646970667358221220d398ec3d12d3cac8279232fc9423dd139e742fc5050a2a849312069a9d43fa6f64736f6c63430008140033",
  "devdoc": {
    "errors": {
      "OwnableInvalidOwner(address)": [
        {
          "details": "The owner is not a valid owner account. (eg. `address(0)`)"
        }
      ],
      "OwnableUnauthorizedAccount(address)": [
        {
          "details": "The caller account is not authorized to perform an operation."
        }
      ]
    },
    "kind": "dev",
    "methods": {
      "owner()": {
        "details": "Returns the address of the current owner."
      },
      "renounceOwnership()": {
        "details": "Leaves the contract without owner. It will not be possible to call `onlyOwner` functions. Can only be called by the current owner. NOTE: Renouncing ownership will leave the contract without an owner, thereby disabling any functionality that is only available to the owner."
      },
      "transferOwnership(address)": {
        "details": "Transfers ownership of the contract to a new account (`newOwner`). Can only be called by the current owner."
      }
    },
    "version": 1
  },
  "userdoc": {
    "kind": "user",
    "methods": {
      "payoutEth(address)": {
        "notice": "Function that allows the owner to withdraw all the Ether in the contract The function can only be called by the owner of the contract as defined by the modifier"
      }
    },
    "version": 1
  },
  "storageLayout": {
    "storage": [
      {
        "astId": 8,
        "contract": "contracts/Locations.sol:Locations",
        "label": "_owner",
        "offset": 0,
        "slot": "0",
        "type": "t_address"
      },
      {
        "astId": 1591,
        "contract": "contracts/Locations.sol:Locations",
        "label": "maxUsedID",
        "offset": 0,
        "slot": "1",
        "type": "t_uint256"
      },
      {
        "astId": 1596,
        "contract": "contracts/Locations.sol:Locations",
        "label": "rows",
        "offset": 0,
        "slot": "2",
        "type": "t_mapping(t_uint256,t_struct(Location)1588_storage)"
      }
    ],
    "types": {
      "t_address": {
        "encoding": "inplace",
        "label": "address",
        "numberOfBytes": "20"
      },
      "t_int32": {
        "encoding": "inplace",
        "label": "int32",
        "numberOfBytes": "4"
      },
      "t_int48": {
        "encoding": "inplace",
        "label": "int48",
        "numberOfBytes": "6"
      },
      "t_mapping(t_uint256,t_struct(Location)1588_storage)": {
        "encoding": "mapping",
        "key": "t_uint256",
        "label": "mapping(uint256 => struct Locations.Location)",
        "numberOfBytes": "32",
        "value": "t_struct(Location)1588_storage"
      },
      "t_string_storage": {
        "encoding": "bytes",
        "label": "string",
        "numberOfBytes": "32"
      },
      "t_struct(Location)1588_storage": {
        "encoding": "inplace",
        "label": "struct Locations.Location",
        "members": [
          {
            "astId": 1565,
            "contract": "contracts/Locations.sol:Locations",
            "label": "lister",
            "offset": 0,
            "slot": "0",
            "type": "t_address"
          },
          {
            "astId": 1567,
            "contract": "contracts/Locations.sol:Locations",
            "label": "signer",
            "offset": 0,
            "slot": "1",
            "type": "t_address"
          },
          {
            "astId": 1569,
            "contract": "contracts/Locations.sol:Locations",
            "label": "picolat",
            "offset": 20,
            "slot": "1",
            "type": "t_int48"
          },
          {
            "astId": 1571,
            "contract": "contracts/Locations.sol:Locations",
            "label": "picolon",
            "offset": 26,
            "slot": "1",
            "type": "t_int48"
          },
          {
            "astId": 1573,
            "contract": "contracts/Locations.sol:Locations",
            "label": "cmAltitude",
            "offset": 0,
            "slot": "2",
            "type": "t_int32"
          },
          {
            "astId": 1575,
            "contract": "contracts/Locations.sol:Locations",
            "label": "cmRadius",
            "offset": 4,
            "slot": "2",
            "type": "t_uint32"
          },
          {
            "astId": 1577,
            "contract": "contracts/Locations.sol:Locations",
            "label": "parent",
            "offset": 0,
            "slot": "3",
            "type": "t_uint256"
          },
          {
            "astId": 1579,
            "contract": "contracts/Locations.sol:Locations",
            "label": "lastUpdated",
            "offset": 0,
            "slot": "4",
            "type": "t_uint256"
          },
          {
            "astId": 1581,
            "contract": "contracts/Locations.sol:Locations",
            "label": "imageURI",
            "offset": 0,
            "slot": "5",
            "type": "t_string_storage"
          },
          {
            "astId": 1583,
            "contract": "contracts/Locations.sol:Locations",
            "label": "venueURI",
            "offset": 0,
            "slot": "6",
            "type": "t_string_storage"
          },
          {
            "astId": 1585,
            "contract": "contracts/Locations.sol:Locations",
            "label": "title140",
            "offset": 0,
            "slot": "7",
            "type": "t_string_storage"
          },
          {
            "astId": 1587,
            "contract": "contracts/Locations.sol:Locations",
            "label": "descr500",
            "offset": 0,
            "slot": "8",
            "type": "t_string_storage"
          }
        ],
        "numberOfBytes": "288"
      },
      "t_uint256": {
        "encoding": "inplace",
        "label": "uint256",
        "numberOfBytes": "32"
      },
      "t_uint32": {
        "encoding": "inplace",
        "label": "uint32",
        "numberOfBytes": "4"
      }
    }
  }
}